:100000000C9446000C9458000C9458000C94580022
:100010000C9458000C9458000C9458000C94580000
:100020000C9458000C9458000C9458000C945800F0
:100030000C9458000C9458000C9458000C945800E0
:100040000C9458000C9458000C9458000C945800D0
:100050000C9458000C9458000C9458000C945800C0
:100060000C9458000C9458000C9458000C945800B0
:100070000C9458000C9458000C9458000C945800A0
:100080000C9458000C9458000C94580011241FBE76
:10009000CFEFD0E1DEBFCDBF21E0A0E0B1E001C0F5
:1000A0001D92A230B207E1F70E9472000C94A500E5
:1000B0000C94000049B32091000130910101220FFE
:1000C000331F306E42FB882780F990E0282B392BB4
:1000D000309301012093000181E02115304F09F098
:1000E00080E008958FEF87BB88BB60E050E006C0DA
:1000F00083EF91E00197F1F700C0000049B38091D0
:10010000000190910101880F991F906E42FB2227F8
:1001100020F930E0822B932B909301018093000112
:100120008115904F29F75F5F5A3010F06F5F50E0F4
:100130006A303CF440E16402C0011124852B88BB85
:0E014000D7CF852F60E088BBD3CFF894FFCFD8
:00000001FF
