S00C00006C6162342E73726563B5
S11300000C9446000C9465000C9465000C946500F7
S11300100C9465000C9465000C9465000C946500C8
S11300200C9465000C9465000C9465000C946500B8
S11300300C9465000C9465000C9482020C94650089
S11300400C9445020C9465000C9465000C946500B6
S11300500C9465000C9494020C9465000C94650057
S11300600C9465000C9465000C9465000C94650078
S11300700C9465000C9465000C9465000C94650068
S11300800C9465000C9465000C94650011241FBE4B
S1130090CFEFD0E1DEBFCDBF11E0A0E0B1E0EEEAEA
S11300A0F1E100E00BBF02C007900D92A434B10748
S11300B0D9F721E0A4E4B1E001C01D92A738B2074A
S11300C0E1F70E94E2070C94D5080C94000087B76E
S11300D0816087BF83B7856083BF80B7886080BF36
S11300E008958FB583608FBD8EB58B608EBD1092E1
S11300F07A00089585B5896685BD0895EBE8F0E03A
S11301008081836C8083EAE8F0E080818960808369
S113011010928C008FEF95E2909387008093860075
S11301200895169A8A9A8DB180658DB9709A08954A
S113013087B1806C87B986B18D6C86B90895482FD4
S1130140E82FF0E0EE0FFF1FE75BFE4F20813181C7
S113015099B3892F90E002C0959587954A95E2F767
S113016081709927220F331F306E822B932B91833A
S113017080832081318181E02115304F09F080E0B6
S11301800895CF93DF93CDB7DEB72C970FB6F894CD
S1130190DEBF0FBECDBF2CE0E6E0F1E0DE0111963C
S11301A001900D922A95E1F721E030E02C0F3D1FDC
S11301B0820F931FFC0180812C960FB6F894DEBF4A
S11301C00FBECDBFDF91CF910895FC01808180FFE8
S11301D004C08AE08093540108958BE08093540115
S11301E00895CF93DF93CDB7DEB72C970FB6F8946D
S11301F0DEBF0FBECDBF27E531E080E45FEF88BBF3
S1130200F90192919F014CE0E6E0F1E0DE011196E4
S113021001900D924A95E1F7E1E0F0E0EC0FFD1F4B
S1130220E90FF11D90819BBBEFE9FFE03197F1F7F6
S113023000C000005BBB807F8051F1E022353F07A6
S1130240F1F62C960FB6F894DEBF0FBECDBFDF914A
S1130250CF910895DC01E2E5F1E090E04DEC9230BD
S113026030F0923029F59F5F31969230D0F7119695
S11302708C911197849F212D1124322F3695369518
S11302803695232F220F220F230F220F821B8083E8
S113029011962C911197249F212D11242695269592
S11302A0269511962C9311979430E9F60C94F1004D
S11302B012962C911297249F812D1124382F369554
S11302C036953695832F880F880F830F880F281B48
S11302D0208312968C911297849F812D11248695E8
S11302E08695869512968C931297DECF1E9A8FB9B7
S11302F0779BFECF929A83B183B985E08A95F1F713
S1130300000092981E9885E08A95F1F700008FB15D
S11303100895CF936091480170E0E0914701F09116
S11303200001A82FB0E030E020E0C0E0AD01022ED3
S113033002C0559547950A94E2F7942F9370AB0148
S1130340022E02C0559547950A94E2F7437055274B
S11303504230510551F14330510589F14130510585
S113036049F1913051F0923061F4F13041F4EF5F92
S1130370E43039F4CF5FE0E004C0F13081F0E0E034
S1130380F0E02E5F3F4F2430310581F6F0930001F9
S1130390E0934701809348018C2FCF910895EF5F3C
S11303A0E43079F7C150E0E0ECCF992331F3933096
S11303B0E1F2E7CF933009F39923B9F2E2CF923017
S11303C0E1F2913091F2DDCF8130910581F1ECF0D1
S11303D08230910561F0039719F46330710569F176
S11303E082E090E0909305018093040108956330C6
S11303F07105B1F7FA018081865F808311821282D0
S113040070930501609304010895892B49F76230C4
S11304107105E9F06130710549F787B7816087BFDD
S113042082E090E090930501809304010895623086
S1130430710541F0672BD1F6D3CF7093050160931A
S1130440040108951092050110920401089587B7DC
S11304508E7F87BF81E090E0909305018093040133
S11304600895FC0161836C3378F082818F5F82830D
S113047089E8689F812D11248295869587709CE375
S1130480899F60191124618308951F920F920FB6FA
S11304900F9211248F93809101018F5F809301014A
S11304A0809101018C3338F0809102018F5F809339
S11304B0020110920101809102018C3338F0809185
S11304C003018F5F80930301109202018091030165
S11304D0883110F0109203018091010180FF09C05E
S11304E08AE0809354018F910F900FBE0F901F905C
S11304F018958BE0809354018F910F900FBE0F904D
S11305001F9018951F920F920FB60F9211248F937C
S11305109F9385B391E0892785BB9F918F910F901D
S11305200FBE0F901F9018951F920F920FB60F9247
S113053011248F939F9384B195B196958795969541
S1130540879583BD369A9F918F910F900FBE0F9020
S11305501F90189521E2829F202D1124E6E8F0E0F7
S113056080819181820F911D27FD9A9591838083CB
S113057008958130910581F128F18230910519F0B7
S11305800397B9F00895809186009091870021E245
S1130590629F602D1124860F911D67FD9A9590939B
S11305A08700809386000E94AE0485E291E00C945B
S11305B0360587B78B7F87BF0E94AE0483E391E043
S11305C00C943605F90161836C3308F50E94AE047E
S11305D082E191E00C943605FA0161836C3330F4C6
S11305E00E94AE048CE191E00C94360582818F5F09
S11305F0828389E8689F812D11248295869587706E
S1130600FCE38F9F60191124FA016183E9CF828191
S11306108F5F828389E8689F812D11248295869556
S11306208770FCE38F9F60191124F9016183CECF99
S113063091E0811101C090E09FB9779BFECF6FB923
S1130640779BFECF809162008860809362008091E6
S11306506200877F80936200089520915101820F88
S1130660911DFC01808191E09FB9779BFECF8FB9EA
S1130670779BFECF809162008860809362008091B6
S11306806200877F80936200809151018F5F809325
S113069051018031F9F0803209F00895E5EDEA95D1
S11306A0F1F700001FB8779BFECF80E88FB9779BE6
S11306B0FECF809162008860809362008091620026
S11306C0877F80936200F5EDFA95F1F700001092B0
S11306D051010895F5EDFA95F1F700001FB8779BE5
S11306E0FECF80EC8FB9779BFECF8091620088604B
S11306F08093620080916200877F8093620085ED21
S11307008A95F1F7000080915101C5CF660F660FFD
S1130710660F605C1FB8779BFECF6FB9779BFECFE7
S11307202091620028602093620020916200277F5C
S11307302093620025ED2A95F1F70000FC019C014D
S1130740285F3F4F91E081919FB9779BFECF8FB98E
S1130750779BFECF809162008860809362008091D5
S11307606200877F8093620085ED8A95F1F700002F
S1130770E217F30741F708958D5F8295880F880F7C
S1130780807C6058680F1FB8779BFECF6FB9779B4A
S1130790FECF809162008860809362008091620045
S11307A0877F809362000895811113C081E08FB91F
S11307B0779BFECF80E38FB9779BFECF8091620059
S11307C088608093620080916200877F80936200DA
S11307D008958436C0F48A3070F59DEC899F912D7C
S11307E01124969596959695292F220F220F920FF4
S11307F0990F891B805D91E09FB9779BFECF8FB9DC
S1130800779BFECFDBCF99E2899F912D112492959E
S11308109F70905D21E02FB9779BFECF9FB9779BA6
S1130820FECF909162009860909362009091620074
S1130830977F9093620099E2899F912D112492955C
S11308409F70382F24E6929F301911242DEC329F8B
S1130850912D1124969596959695905D21E02FB94A
S1130860779BFECF9FB9779BFECF909162009860F3
S11308709093620090916200977F90936200ADCF55
S113088087FF19C091E09FB9779BFECF9DE29FB986
S1130890779BFECF90916200986090936200909154
S11308A06200977F9093620095ED9A95F1F70000AE
S11308B081950C94D4030C94D4031FB8779BFECF7A
S11308C08EE08FB9779BFECF809162008860809321
S11308D0620080916200877F8093620008951FB850
S11308E0779BFECF8CE08FB9779BFECF809162001F
S11308F088608093620080916200877F80936200A9
S113090008951FB8779BFECF8EE18FB9779BFECFFA
S11309108091620088608093620080916200877F8A
S11309208093620008951FB8779BFECF88E18FB94A
S1130930779BFECF809162008860809362008091F3
S11309406200877F809362000895E2E6F0E0808190
S1130950886080838081877F808308951FB8779B18
S1130960FECF81E08FB9779BFECF809162008860D3
S11309708093620080916200877F809362008FE1A0
S11309809CE10197F1F700C0000008951FB8779B20
S1130990FECF82E08FB9779BFECF809162008860A2
S11309A08093620080916200877F809362008FE66B
S11309B097E10197F1F700C0000008951FB8779BF5
S11309C0FECF80EC8FB9779BFECF80916200886068
S11309D08093620080916200877F8093620085ED3E
S11309E08A95F1F7000008951FB8779BFECF80E841
S11309F08FB9779BFECF80916200886080936200FC
S1130A0080916200877F8093620085ED8A95F1F77B
S1130A100000089590E131E020E23FB9779BFECFDA
S1130A202FB9779BFECF809162008860809362002B
S1130A3080916200877F8093620085ED8A95F1F74B
S1130A400000915051F7089591E09FB9779BFECF34
S1130A508FB9779BFECF809162008860809362009B
S1130A6080916200877F809362000895FC0160E0BA
S1130A7050E040E071E04E0F5F1FDA018C917FB9C6
S1130A80779BFECF8FB9779BFECF909162009860E1
S1130A909093620090916200977F90936200B5ED0D
S1130AA0BA95F1F700006F5F462F50E0DF010D901B
S1130AB00020E9F79D012E1B3F0B2250310924171A
S1130AC03507C8F608958FEF99EF0197F1F700C045
S1130AD0000088E0809361001FB8779BFECF80E31D
S1130AE08FB9779BFECF809162008860809362000B
S1130AF080916200877F809362008FE59DE6019775
S1130B00F1F700C000001FB8779BFECF80E38FB9D8
S1130B10779BFECF80916200886080936200809111
S1130B206200877F809362008FE59DE60197F1F76D
S1130B3000C000001FB8779BFECF80E38FB9779B7E
S1130B40FECF809162008860809362008091620091
S1130B50877F809362008FE59DE60197F1F700C0DF
S1130B6000001FB8779BFECF88E38FB9779BFECF39
S1130B708091620088608093620080916200877F28
S1130B80809362008FE19EE40197F1F700C00000BA
S1130B901FB8779BFECF88E08FB9779BFECF8091FB
S1130BA0620088608093620080916200877F8093F6
S1130BB062008FE19EE40197F1F700C000001FB8C6
S1130BC0779BFECF81E08FB9779BFECF8091620047
S1130BD088608093620080916200877F80936200C6
S1130BE08FE19EE40197F1F700C000001FB8779BE6
S1130BF0FECF86E08FB9779BFECF8091620088603C
S1130C008093620080916200877F809362008FE10D
S1130C109EE40197F1F700C000001FB8779BFECF58
S1130C208CE08FB9779BFECF8091620088608093BF
S1130C30620080916200877F809362008FE19EE46E
S1130C400197F1F700C0000008956F927F928F9290
S1130C509F92AF92BF92CF92DF92EF92FF920F9347
S1130C601F93CF93DF93CDB7DEB769970FB6F89490
S1130C70DEBF0FBECDBFF42E122F002359F04B015F
S1130C805C018824B7FC83949924AA24BB24082DEE
S1130C9097FDAFC011117DC09E012F5F3F4F6901C9
S1130CA02AE030E040E050E00E948008F62F2A8BD2
S1130CB03B8B4C8B5D8B6E8B7F8B888F998F6A8976
S1130CC07B898C899D89E1E0E10FD601A10FB11DDB
S1130CD0F05DFC931E2F611571058105910501F7E7
S1130CE0FF20E1F020E3E11001C020E2EF15B0F4B1
S1130CF04E2F50E0D601A40FB51F82E090E08C0F78
S1130D009D1F480F591F8FEF8F0D8E1B840F952F3A
S1130D10911D2D93A817B907E1F7EF2D002331F0AA
S1130D20D601AE0FB11D8DE28C93EF5FE150F0E080
S1130D303196EC0DFD1D91E082919FB9779BFECF1A
S1130D408FB9779BFECF80916200886080936200A8
S1130D5080916200877F80936200A5EDAA95F1F7E8
S1130D600000CE16DF0641F769960FB6F894DEBF91
S1130D700FBECDBFDF91CF911F910F91FF90EF90E8
S1130D80DF90CF90BF90AF909F908F907F906F90A7
S1130D900895DE0111966D014D015D01BFEFAB1A9F
S1130DA0BB0A66246A94610E6A0C7B2C711C04C015
S1130DB095012F5F3F4F59012AE030E040E050E0B9
S1130DC00E948008E62F2A8B3B8B4C8B5D8B6A89B3
S1130DD07B898C899D89E05DD401EC934501A6143F
S1130DE0B70431F7F601E10FF11D2EE220831F5FF6
S1130DF057CF90958095709561957F4F8F4F9F4FFA
S1130E0049CF5F926F927F928F929F92AF92BF92DF
S1130E10CF92DF92EF92FF920F931F93CF93DF93C2
S1130E20CDB7DEB761970FB6F894DEBF0FBECDBF66
S1130E304C01562E142F9C0197FF04C02227332700
S1130E40281B390B111128C0AE014F5F5F4F7A0187
S1130E5001C01A2F6AE070E0C9010E946C08462F95
S1130E60242F372FA1E0A10FF701E10FF11D805DC1
S1130E7080832115310569F7011137C097FC8EC0B5
S1130E80552041F08A2F90E0252D30E040E2A51551
S1130E9008F479C0EA2F38C0CE0101967C016C01B8
S1130EA03C019FEF691A790AAA24AA94A10EA60C00
S1130EB0B72CB11C04C0A3014F5F5F4F3A016AE035
S1130EC070E0C9010E946C08462F242F372F805DE3
S1130ED0F60180836301A614B70469F7F701E10FF3
S1130EE0F11D8EE280831F5FB5CF092D001F0027FF
S1130EF0001F51103DC0002369F2E1E0EA0FAE0D7E
S1130F00BF2DB11D8DE28C93E150F0E03196EE0DD2
S1130F10FF1D91E082919FB9779BFECF8FB9779B9C
S1130F20FECF8091620088608093620080916200AD
S1130F30877F8093620045ED4A95F1F70000EE1635
S1130F40FF0641F761960FB6F894DEBF0FBECDBF22
S1130F50DF91CF911F910F91FF90EF90DF90CF9091
S1130F60BF90AF909F908F907F906F905F90089507
S1130F708A2F90E0E52DE01BFF0B9F0140E38E17C5
S1130F809F070CF0B8CFAF5F8E0D9F1DFC0140830F
S1130F908A2F90E082179307B4F3ADCFE2E0E10F1C
S1130FA0AE0DBF2DB11D8DE28C93552009F4ACCF4D
S1130FB08E2F90E0252D30E0AE2F40E2821793076C
S1130FC014F3A2CF87EF87BB81E084BB88E082B9AA
S1130FD083B9169A8A9A8DB180658DB9709A87B74C
S1130FE0816087BF83B7856083BF80B7886080BF17
S1130FF08FB583608FBD8EB58B608EBD10927A00E5
S113100085B5896685BD80918B00836C80938B0048
S113101080918A00896080938A0010928C008FEFFF
S113102095E2909387008093860087B1806C87B99E
S113103086B18D6C86B90E94630578944CEFF42ECA
S11310401FEFFABA1BBB08B388B3806788BBD0E034
S1131050C0E0FE01EE0FFF1FE75BFE4F8081918130
S113106029B3880F991F906E30E00C2E02C035957D
S113107027950A94E2F721703327822B932B9183CF
S11310808083808191818115904FE1F02196C43055
S1131090D105F9F608BB1ABB809104010E947601C0
S11310A00E94890124E431E041E051E0682F8091FD
S11310B00401909105010E94B90281E091E00E942F
S11310C02A01BFCF609104017091050144E451E00D
S11310D0CE010E94E401DACF97FB072E16F40094A8
S11310E007D077FD09D00E949F0807FC05D03EF485
S11310F0909581959F4F0895709561957F4F0895C0
S1131100052E97FB1EF400940E94970857FD07D004
S11311100E94B30807FC03D04EF40C949708509532
S11311204095309521953F4F4F4F5F4F08959095CF
S11311308095709561957F4F8F4F9F4F0895AA1B9F
S1131140BB1B51E107C0AA1FBB1FA617B70710F0AE
S1131150A61BB70B881F991F5A95A9F780959095E0
S1131160BC01CD010895A1E21A2EAA1BBB1BFD01EF
S11311700DC0AA1FBB1FEE1FFF1FA217B307E40772
S1131180F50720F0A21BB30BE40BF50B661F771FCA
S1131190881F991F1A9469F76095709580959095AA
S11111A09B01AC01BD01CF010895F894FFCF6F
S11311AE010C000C0200C0F9A4B0999282F8809848
S11311BEFFFC414C41524D205345540054494D457A
S11311CE2053455400564F4C554D452041444A55E5
S11311DE535400414C41524D4544204449534142DD
S10711EE4C45440024
S9030000FC
