:100000000C9446000C9465000C9465000C946500FB
:100010000C9465000C9465000C9465000C946500CC
:100020000C9465000C9465000C9465000C946500BC
:100030000C9465000C9465000C947C020C94650093
:100040000C9423020C9465000C9465000C946500DC
:100050000C9465000C949A020C9465000C94650055
:100060000C9465000C9465000C9465000C9465007C
:100070000C9465000C9465000C9465000C9465006C
:100080000C9465000C9465000C94650011241FBE4F
:10009000CFEFD0E1DEBFCDBF11E0A0E0B1E0E0E303
:1000A000F2E100E00BBF02C007900D92A634B10749
:1000B000D9F721E0A6E4B1E001C01D92AD38B20746
:1000C000E1F70E94EF070C9416090C94000087B723
:1000D000816087BF83B7856083BF80B7886080BF3A
:1000E000089587B7846087BF8FB583608FBD8EB555
:1000F0008B608EBD10927A00089585B5896685BDA6
:100100000895EBE8F0E08081836C8083EAE8F0E01A
:1001100080818960808310928C008FEF95E29093AC
:100120008700809386000895169A8A9A8DB180651B
:100130008DB9709A089587B1806C87B986B18D6C3E
:1001400086B90895482FE82FF0E0EE0FFF1FE85B17
:10015000FE4F2081318199B3892F90E002C095959F
:1001600087954A95E2F781709927220F331F306EE9
:10017000822B932B918380832081318181E0211513
:10018000304F09F080E00895CF93DF93CDB7DEB70D
:100190002C970FB6F894DEBF0FBECDBF2CE0E7E082
:1001A000F1E0DE01119601900D922A95E1F721E030
:1001B00030E02C0F3D1F820F931FFC0180812C9695
:1001C0000FB6F894DEBF0FBECDBFDF91CF9108957B
:1001D0008091030180FF04C08AE080935A01089552
:1001E0008BE080935A010895CF93DF93CDB7DEB7AC
:1001F0002C970FB6F894DEBF0FBECDBF2DE531E0D2
:1002000080E45FEF88BBF90192919F014CE0E7E049
:10021000F1E0DE01119601900D924A95E1F7E1E0DF
:10022000F0E0EC0FFD1FE90FF11D90819BBBEFE9A2
:10023000FFE03197F1F700C000005BBB807F805189
:10024000F1E028353F07F1F62C960FB6F894DEBFA3
:100250000FBECDBFDF91CF910895E8E5F1E090E0CA
:100260004DEC923030F09230B1F49F5F3196923085
:10027000D0F7849F212D1124269526952695322F7F
:10028000330F330F320F330F831B8083822F943051
:1002900061F70C94F400649F212D11242695269576
:1002A0002695322F330F330F320F330F631B6083CA
:1002B000622FEDCF1E9A8FB9779BFECF929A83B1B2
:1002C00083B985E08A95F1F7000092981E9885E041
:1002D0008A95F1F700008FB10895CF93609147019F
:1002E00070E0E0914601F0910001A82FB0E030E00D
:1002F00020E0C0E0AD01022E02C0559547950A945A
:10030000E2F7942F9370AB01022E02C055954795EA
:100310000A94E2F7437055274230510551F14330BA
:10032000510589F14130510549F1913051F0923038
:1003300061F4F13041F4EF5FE43039F4CF5FE0E095
:1003400004C0F13081F0E0E0F0E02E5F3F4F243058
:10035000310581F6F0930001E09346018093470157
:100360008C2FCF910895EF5FE43079F7C150E0E032
:10037000ECCF992331F39330E1F2E7CF933009F3D7
:100380009923B9F2E2CF9230E1F2913091F2DDCFD0
:1003900008958130910591F1FCF08230910561F072
:1003A000039719F46330710579F182E090E090933E
:1003B000060180930501089563307105B1F78091BE
:1003C0005501809302018091530180930101709344
:1003D0000601609305010895892B39F76230710594
:1003E000E9F06130710539F787B7816087BF82E036
:1003F00090E09093060180930501089562307105A5
:1004000041F0672BC1F6D1CF7093060160930501CF
:1004100008951092060110920501089587B78E7F06
:1004200087BF81E090E090930601809305010895D5
:1004300090E0909356018093550170E070935401C1
:100440006093530108951F920F920FB60F921124DB
:100450002F933F934F935F938F939F9380910301CB
:1004600090910401019690930401809303014091BF
:100470005501509156018C33910568F5817099278B
:1004800020915301309154014C33510550F02F5FAE
:100490003F4F309354012093530110925601109214
:1004A00055012831310520F010925401109253016A
:1004B000892BF1F08AE080935A0181E08093520108
:1004C0009F918F915F914F913F912F910F900FBE10
:1004D0000F901F9018954F5F5F4F509356014093B8
:1004E0005501109204011092030190E080E0C8CF02
:1004F0008BE080935A01E1CF1F920F920FB60F92BB
:1005000011248F939F9380915201811108C0A89864
:100510009F918F910F900FBE0F901F90189585B3EC
:1005200091E0892785BB9F918F910F900FBE0F900F
:100530001F9018951F920F920FB60F9211248F9350
:100540009F9384B195B1969587959695879583BD30
:10055000369A9F918F910F900FBE0F901F90189514
:1005600021E2829F202D1124E6E8F0E08081918134
:10057000820F911D27FD9A95918380830895813084
:100580009105E9F128F18230910519F00397B9F04E
:100590000895809186009091870021E2629F602DEE
:1005A0001124860F911D67FD9A9590938700809383
:1005B00086000E94BB0486E291E00C94430587B755
:1005C0008B7F87BF0E94BB0484E391E00C944305BA
:1005D00080910201860F809302018C3354F0909138
:1005E00001019F5F909301016CE30E949308909337
:1005F00002010E94BB0483E191E00C9443058091C9
:100600005101860F809351018C3354F09091500129
:100610009F5F909350016CE30E9493089093510167
:100620000E94BB048DE191E00E944305809150013E
:100630002091510130E0309356012093550190E014
:100640009093540180935301089591E0811101C06A
:1006500090E09FB9779BFECF6FB9779BFECF8091DB
:10066000620088608093620080916200877F80933F
:100670006200089520915701820F911DFC01808135
:1006800091E09FB9779BFECF8FB9779BFECF80918A
:10069000620088608093620080916200877F80930F
:1006A0006200809157018F5F809357018031F9F08C
:1006B000803209F00895E5EDEA95F1F700001FB8E2
:1006C000779BFECF80E88FB9779BFECF8091620049
:1006D00088608093620080916200877F80936200CF
:1006E000F5EDFA95F1F70000109257010895F5ED38
:1006F000FA95F1F700001FB8779BFECF80EC8FB919
:10070000779BFECF80916200886080936200809129
:100710006200877F8093620085ED8A95F1F7000083
:1007200080915701C5CF660F660F660F605C1FB8DA
:10073000779BFECF6FB9779BFECF20916200286038
:100740002093620020916200277F2093620025EDB4
:100750002A95F1F70000FC019C01285F3F4F91E0D2
:1007600081919FB9779BFECF8FB9779BFECF809108
:10077000620088608093620080916200877F80932E
:10078000620085ED8A95F1F70000E217F30741F763
:1007900008958D5F8295880F880F807C6058680F60
:1007A0001FB8779BFECF6FB9779BFECF8091620019
:1007B00088608093620080916200877F80936200EE
:1007C0000895811113C081E08FB9779BFECF80E33C
:1007D0008FB9779BFECF8091620088608093620022
:1007E00080916200877F8093620008958436C0F410
:1007F0008A3070F59DEC899F912D112496959695E0
:100800009695292F220F220F920F990F891B805D39
:1008100091E09FB9779BFECF8FB9779BFECFDBCF5F
:1008200099E2899F912D112492959F70905D21E00E
:100830002FB9779BFECF9FB9779BFECF9091620037
:1008400098609093620090916200977F909362000D
:1008500099E2899F912D112492959F70382F24E65B
:10086000929F301911242DEC329F912D11249695D1
:1008700096959695905D21E02FB9779BFECF9FB915
:10088000779BFECF90916200986090936200909168
:100890006200977F90936200ADCF87FF19C091E00F
:1008A0009FB9779BFECF9DE29FB9779BFECF90913A
:1008B000620098609093620090916200977F90939D
:1008C000620095ED9A95F1F7000081950C94E10393
:1008D0000C94E1031FB8779BFECF8EE08FB9779B16
:1008E000FECF8091620088608093620080916200F8
:1008F000877F8093620008951FB8779BFECF8CE0BE
:100900008FB9779BFECF80916200886080936200F0
:1009100080916200877F8093620008951FB8779B63
:10092000FECF8EE18FB9779BFECF80916200886009
:100930008093620080916200877F809362000895B7
:100940001FB8779BFECF88E18FB9779BFECF809150
:10095000620088608093620080916200877F80934C
:1009600062000895E2E6F0E0808188608083808103
:10097000877F808308951FB8779BFECF81E08FB972
:10098000779BFECF809162008860809362008091A7
:100990006200877F809362008FE19CE10197F1F70D
:1009A00000C0000008951FB8779BFECF82E08FB98A
:1009B000779BFECF80916200886080936200809177
:1009C0006200877F809362008FE697E10197F1F7DD
:1009D00000C0000008951FB8779BFECF80EC8FB950
:1009E000779BFECF80916200886080936200809147
:1009F0006200877F8093620085ED8A95F1F70000A1
:100A000008951FB8779BFECF80E88FB9779BFECF04
:100A10008091620088608093620080916200877F8D
:100A20008093620085ED8A95F1F70000089590E1CA
:100A300031E020E23FB9779BFECF2FB9779BFECF05
:100A40008091620088608093620080916200877F5D
:100A50008093620085ED8A95F1F70000915051F77F
:100A6000089591E09FB9779BFECF8FB9779BFECF1A
:100A70008091620088608093620080916200877F2D
:100A8000809362000895FC0160E050E040E071E076
:100A90004E0F5F1FDA018C917FB9779BFECF8FB924
:100AA000779BFECF90916200986090936200909146
:100AB0006200977F90936200B5EDBA95F1F7000060
:100AC0006F5F462F50E0DF010D900020E9F79D0198
:100AD0002E1B3F0B2250310924173507C8F6089505
:100AE0008FEF99EF0197F1F700C0000088E0809345
:100AF00061001FB8779BFECF80E38FB9779BFECF55
:100B00008091620088608093620080916200877F9C
:100B1000809362008FE59DE60197F1F700C0000029
:100B20001FB8779BFECF80E38FB9779BFECF809174
:100B3000620088608093620080916200877F80936A
:100B400062008FE59DE60197F1F700C000001FB835
:100B5000779BFECF80E38FB9779BFECF80916200B9
:100B600088608093620080916200877F809362003A
:100B70008FE59DE60197F1F700C000001FB8779B55
:100B8000FECF88E38FB9779BFECF809162008860AB
:100B90008093620080916200877F809362008FE182
:100BA0009EE40197F1F700C000001FB8779BFECFCD
:100BB00088E08FB9779BFECF809162008860809338
:100BC000620080916200877F809362008FE19EE4E3
:100BD0000197F1F700C000001FB8779BFECF81E0BE
:100BE0008FB9779BFECF809162008860809362000E
:100BF00080916200877F809362008FE19EE401977D
:100C0000F1F700C000001FB8779BFECF86E08FB9D8
:100C1000779BFECF80916200886080936200809114
:100C20006200877F809362008FE19EE40197F1F775
:100C300000C000001FB8779BFECF8CE08FB9779B78
:100C4000FECF809162008860809362008091620094
:100C5000877F809362008FE19EE40197F1F700C0E7
:100C6000000008956F927F928F929F92AF92BF92F1
:100C7000CF92DF92EF92FF920F931F93CF93DF9368
:100C8000CDB7DEB769970FB6F894DEBF0FBECDBF04
:100C9000F42E122F002359F04B015C018824B7FC7D
:100CA00083949924AA24BB24082D97FDAFC0111169
:100CB0007DC09E012F5F3F4F69012AE030E040E098
:100CC00050E00E94B508F62F2A8B3B8B4C8B5D8B36
:100CD0006E8B7F8B888F998F6A897B898C899D89A0
:100CE000E1E0E10FD601A10FB11DF05DFC931E2FD5
:100CF000611571058105910501F7FF20E1F020E301
:100D0000E11001C020E2EF15B0F44E2F50E0D60103
:100D1000A40FB51F82E090E08C0F9D1F480F591F54
:100D20008FEF8F0D8E1B840F952F911D2D93A8177C
:100D3000B907E1F7EF2D002331F0D601AE0FB11D59
:100D40008DE28C93EF5FE150F0E03196EC0DFD1DEC
:100D500091E082919FB9779BFECF8FB9779BFECFB1
:100D60008091620088608093620080916200877F3A
:100D700080936200A5EDAA95F1F70000CE16DF067C
:100D800041F769960FB6F894DEBF0FBECDBFDF9175
:100D9000CF911F910F91FF90EF90DF90CF90BF9078
:100DA000AF909F908F907F906F900895DE01119685
:100DB0006D014D015D01BFEFAB1ABB0A66246A9459
:100DC000610E6A0C7B2C711C04C095012F5F3F4F94
:100DD00059012AE030E040E050E00E94B508E62FDB
:100DE0002A8B3B8B4C8B5D8B6A897B898C899D8997
:100DF000E05DD401EC934501A614B70431F7F60188
:100E0000E10FF11D2EE220831F5F57CF9095809553
:100E1000709561957F4F8F4F9F4F49CF5F926F9233
:100E20007F928F929F92AF92BF92CF92DF92EF927A
:100E3000FF920F931F93CF93DF93CDB7DEB76197E8
:100E40000FB6F894DEBF0FBECDBF4C01562E142F47
:100E50009C0197FF04C022273327281B390B11114F
:100E600028C0AE014F5F5F4F7A0101C01A2F6AE0C0
:100E700070E0C9010E94A108462F242F372FA1E05E
:100E8000A10FF701E10FF11D805D80832115310570
:100E900069F7011137C097FC8EC0552041F08A2FA9
:100EA00090E0252D30E040E2A51508F479C0EA2F46
:100EB00038C0CE0101967C016C013C019FEF691A9C
:100EC000790AAA24AA94A10EA60CB72CB11C04C0BE
:100ED000A3014F5F5F4F3A016AE070E0C9010E94D1
:100EE000A108462F242F372F805DF60180836301F0
:100EF000A614B70469F7F701E10FF11D8EE28083B4
:100F00001F5FB5CF092D001F0027001F51103DC0E6
:100F1000002369F2E1E0EA0FAE0DBF2DB11D8DE2B5
:100F20008C93E150F0E03196EE0DFF1D91E082913F
:100F30009FB9779BFECF8FB9779BFECF80916200E0
:100F400088608093620080916200877F8093620056
:100F500045ED4A95F1F70000EE16FF0641F7619660
:100F60000FB6F894DEBF0FBECDBFDF91CF911F91BA
:100F70000F91FF90EF90DF90CF90BF90AF909F9038
:100F80008F907F906F905F9008958A2F90E0E52D6D
:100F9000E01BFF0B9F0140E38E179F070CF0B8CFBB
:100FA000AF5F8E0D9F1DFC0140838A2F90E082175A
:100FB0009307B4F3ADCFE2E0E10FAE0DBF2DB11D4D
:100FC0008DE28C93552009F4ACCF8E2F90E0252D27
:100FD00030E0AE2F40E28217930714F3A2CF87EFE1
:100FE00087BB81E084BB88E082B983B9169A8A9A6C
:100FF0008DB180658DB9709A87B7816087BF83B7DF
:10100000856083BF80B7886080BF87B7846087BFF3
:101010008FB583608FBD8EB58B608EBD10927A00C8
:1010200085B5896685BD80918B00836C80938B002C
:1010300080918A00896080938A0010928C008FEFE3
:1010400095E2909387008093860087B1806C87B982
:1010500086B18D6C86B90E94700578944CEFF42EA1
:101060001FEFFABA1BBB08B388B3806788BBD0E018
:10107000C0E0FE01EE0FFF1FE85BFE4F8081918113
:1010800029B3880F991F906E30E00C2E02C0359561
:1010900027950A94E2F721703327822B932B9183B3
:1010A0008083808191818115904F39F12196C430E0
:1010B000D105F9F608BB1ABB809105010E945A01BF
:1010C0000E946D01682F80910501909106010E9498
:1010D000BF02809105019091060181309105A9F030
:1010E00082309105C9F0892B09F0BBCF60910101D5
:1010F000809102010E942D01B4CF60910501709191
:101100000601CE010E94C901D1CF609150018091AA
:1011100051010E942D01A5CF60915301809155018D
:101120000E942D019ECF87FB082E062687FD819504
:1011300067FD61950E94D4080EF4919507FC819596
:10114000089597FB072E16F4009407D077FD09D079
:101150000E94E00807FC05D03EF4909581959F4FD2
:101160000895709561957F4F0895052E97FB1EF4A5
:1011700000940E94CC0857FD07D00E94F40807FC99
:1011800003D04EF40C94CC085095409530952195A1
:101190003F4F4F4F5F4F08959095809570956195A3
:1011A0007F4F8F4F9F4F0895991B79E004C0991F7F
:1011B000961708F0961B881F7A95C9F780950895B1
:1011C000AA1BBB1B51E107C0AA1FBB1FA617B7076D
:1011D00010F0A61BB70B881F991F5A95A9F7809589
:1011E0009095BC01CD010895A1E21A2EAA1BBB1B4C
:1011F000FD010DC0AA1FBB1FEE1FFF1FA217B307E3
:10120000E407F50720F0A21BB30BE40BF50B661FF8
:10121000771F881F991F1A9469F7609570958095BC
:1012200090959B01AC01BD01CF010895F894FFCFCB
:10123000010A0A01000200C0F9A4B0999282F88064
:1012400098FFFC414C41524D205345540054494DA8
:10125000452053455400564F4C554D452041444A76
:1012600055535400414C41524D454420444953414B
:06127000424C4544000061
:00000001FF
