:100000000C9446000C9465000C9465000C946500FB
:100010000C9465000C9465000C9465000C946500CC
:100020000C9465000C9465000C9465000C946500BC
:100030000C9465000C9465000C949F020C94650070
:100040000C9447020C9465000C9465000C946500B8
:100050000C9465000C94B1020C9465000C9465003E
:100060000C9465000C9465000C9465000C9465007C
:100070000C9465000C9465000C9465000C9465006C
:100080000C9465000C9465000C94650011241FBE4F
:10009000CFEFD0E1DEBFCDBF11E0A0E0B1E0E6E7F9
:1000A000F2E100E00BBF02C007900D92AE32B10743
:1000B000D9F721E0AEE2B1E001C01D92A337B2074B
:1000C000E1F70E9426080C9439090C94000087B7C8
:1000D000816087BF83B7856083BF80B7886080BF3A
:1000E00008958FB583608FBD8EB58B608EBD1092E5
:1000F0007A00089585B5896785BD0895EBE8F0E03D
:100100008081836C8083EAE8F0E08081896080836D
:1001100010928C008FEF95E2909387008093860079
:100120000895169A8A9A8DB180658DB9709A08954E
:1001300087B1806C87B986B18D6C86B90895482FD8
:10014000E82FF0E0EE0FFF1FED5CFE4F20813181C4
:1001500099B3892F90E002C0959587954A95E2F76B
:1001600081709927220F331F306E822B932B91833E
:1001700080832081318181E02115304F09F080E0BA
:100180000895CF93DF93CDB7DEB72C970FB6F894D1
:10019000DEBF0FBECDBF2CE0E6E0F1E0DE01119640
:1001A00001900D922A95E1F721E030E02C0F3D1FE0
:1001B000820F931FFC0180812C960FB6F894DEBF4E
:1001C0000FBECDBFDF91CF910895FC01808180FFEC
:1001D00004C08AE08093400108958BE08093400141
:1001E0000895CF93DF93CDB7DEB72C970FB6F89471
:1001F000DEBF0FBECDBF23E431E080E45FEF88BBFC
:10020000F90192919F014CE0E6E0F1E0DE011196E8
:1002100001900D924A95E1F7E1E0F0E0EC0FFD1F4F
:10022000E90FF11D90819BBBEFE9FFE03197F1F7FA
:1002300000C000005BBB807F8051F1E02E333F07A0
:10024000F1F62C960FB6F894DEBF0FBECDBFDF914E
:10025000CF910895EEE3F1E090E047E6923030F080
:100260009230B9F49F5F31969230D0F78402212DFD
:1002700011242595259587FD2395322F330F330FB4
:10028000320F330F831B8083822F943059F70C94E5
:10029000F1006402212D11242595259567FD2395F4
:1002A000322F330F330F320F330F631B6083622FF4
:1002B000ECCF1E9A8FB9779BFECF929A83B183B908
:1002C00085E08A95F1F7000092981E9885E08A955E
:1002D000F1F700008FB10895CF936091320170E083
:1002E000E0913101F0910001A82FB0E030E020E072
:1002F000C0E0AD01022E02C0559547950A94E2F781
:10030000942F9370AB01022E02C0559547950A9425
:10031000E2F7437055274230510551F14330510502
:1003200089F14130510549F1913051F0923061F439
:10033000F13041F4EF5FE43039F4CF5FE0E004C026
:10034000F13081F0E0E0F0E02E5F3F4F24303105E6
:1003500081F6F0930001E0933101809332018C2FFC
:10036000CF910895EF5FE43079F7C150E0E0ECCF32
:10037000992331F39330E1F2E7CF933009F39923D6
:10038000B9F2E2CF9230E1F2913091F2DDCF8130DB
:10039000910509F44AC0BCF182309105A1F00397A0
:1003A00059F580913B01882339F187B78B7F87BF4F
:1003B00010923B0110923C0182E090E09093050185
:1003C00080930401089520913B012223A9F02091FC
:1003D0000101265FFA0120832091020121832091EF
:1003E0000301228327B72B7F27BF10923B019093F5
:1003F000050180930401089582E090E09093050147
:10040000809304010895892BB9F76230710539F1A1
:1004100061307105B9F787B7816087BF82E090E0EE
:10042000909305018093040108956230710591F065
:10043000672B41F782E090E09093050180930401DF
:100440000E94F20482E191E00E947A0581E08093AB
:100450003C0108951092050110920401089587B798
:100460008E7F87BF81E090E0909305018093040127
:100470000895FC018181680F618382816C3318F0DB
:100480008F5F82831182883108F0128208951F9253
:100490000F920FB60F9211248F939F9380910101B9
:1004A0008F5F80930101809101018C3338F080913E
:1004B00002018F5F8093020110920101809102017D
:1004C0008C3338F0809103018F5F80930301109289
:1004D000020180910301883110F010920301809194
:1004E000010180FD10C08BE08093400190910301D9
:1004F00080913001981781F09F918F910F900FBEDE
:100500000F901F9018958AE080934001909103010D
:10051000809130019813F0CF9091020180912F01CA
:100520009813EACF9091010180912E019813E4CFA6
:1005300087B7846087BF81E080933B01DDCF1F9246
:100540000F920FB60F9211248F939F9385B391E072
:10055000892785BB9F918F910F900FBE0F901F90A1
:1005600018951F920F920FB60F9211248F939F939D
:1005700084B195B19695879596958795969587952B
:10058000845283BD369A9F918F910F900FBE0F902A
:100590001F90189594E1899F802D11242091860049
:1005A00030918700082E000C990B280F391F2D3F22
:1005B0003340D8F42091860030918700280F391FEE
:1005C0002431310558F02091860030918700820F48
:1005D000931F9093870080938600089584E190E0B4
:1005E000909387008093860008958CEF93E090931A
:1005F000870080938600089581309105D9F158F1E4
:100600008230910519F0039701F1089580918600D9
:100610009091870024E1629F602D1124062E000C2A
:10062000770B860F971F8D3F9340A0F58091860032
:1006300090918700860F971F449798F584E190E08A
:10064000909387008093860008950E94F2048CE1C5
:1006500091E00C947A05F9018181680F61838281B0
:100660006C3318F08F5F82831182883178F0F90142
:1006700012820895FA018181680F618382816C334F
:1006800018F08F5F82831182883108F40895FA018F
:10069000128208958CEF93E09093870080938600F8
:1006A00008958091860090918700680F791F70935C
:1006B000870060938600089591E0811101C090E069
:1006C0009FB9779BFECF6FB9779BFECF8091620079
:1006D00088608093620080916200877F80936200CF
:1006E000089520913D01820F911DFC01808191E0D0
:1006F0009FB9779BFECF8FB9779BFECF8091620029
:1007000088608093620080916200877F809362009E
:1007100080913D018F5F80933D018031F9F08032FF
:1007200009F00895E5EDEA95F1F700001FB8779B11
:10073000FECF80E88FB9779BFECF80916200886002
:100740008093620080916200877F80936200F5ED64
:10075000FA95F1F7000010923D010895F5EDFA9534
:10076000F1F700001FB8779BFECF80EC8FB9779B25
:10077000FECF809162008860809362008091620069
:10078000877F8093620085ED8A95F1F70000809164
:100790003D01C5CF660F660F660F605C1FB8779B83
:1007A000FECF6FB9779BFECF209162002860209327
:1007B000620020916200277F2093620025ED2A9538
:1007C000F1F70000FC019C01285F3F4F91E081910F
:1007D0009FB9779BFECF8FB9779BFECF8091620048
:1007E00088608093620080916200877F80936200BE
:1007F00085ED8A95F1F70000E217F30741F70895B8
:100800008D5F8295880F880F807C6058680F1FB8B5
:10081000779BFECF6FB9779BFECF80916200886097
:100820008093620080916200877F809362000895C8
:10083000811113C081E08FB9779BFECF80E38FB920
:10084000779BFECF809162008860809362008091E8
:100850006200877F8093620008958436C0F48A30F6
:1008600070F59DEC899F912D1124969596959695FE
:10087000292F220F220F920F990F891B805D91E083
:100880009FB9779BFECF8FB9779BFECFDBCF99E2E5
:10089000899F912D112492959F70905D21E02FB931
:1008A000779BFECF9FB9779BFECF909162009860B7
:1008B0009093620090916200977F9093620099E21A
:1008C000899F912D112492959F70382F24E6929F35
:1008D000301911242DEC329F912D11249695969567
:1008E0009695905D21E02FB9779BFECF9FB9779BBE
:1008F000FECF9091620098609093620090916200A8
:10090000977F90936200ADCF87FF19C091E09FB9A8
:10091000779BFECF9DE29FB9779BFECF90916200BF
:1009200098609093620090916200977F909362002C
:1009300095ED9A95F1F7000081950C9418040C94AC
:1009400018041FB8779BFECF8EE08FB9779BFECF40
:100950008091620088608093620080916200877F4E
:100960008093620008951FB8779BFECF8CE08FB90B
:10097000779BFECF809162008860809362008091B7
:100980006200877F8093620008951FB8779BFECF37
:100990008EE18FB9779BFECF809162008860809353
:1009A000620080916200877F8093620008951FB883
:1009B000779BFECF88E18FB9779BFECF8091620055
:1009C00088608093620080916200877F80936200DC
:1009D0000895E2E6F0E08081886080838081877FEF
:1009E000808308951FB8779BFECF81E08FB9779BF6
:1009F000FECF8091620088608093620080916200E7
:100A0000877F809362008FE19CE10197F1F700C03E
:100A1000000008951FB8779BFECF82E08FB9779BC7
:100A2000FECF8091620088608093620080916200B6
:100A3000877F809362008FE697E10197F1F700C00E
:100A4000000008951FB8779BFECF80EC8FB9779B8D
:100A5000FECF809162008860809362008091620086
:100A6000877F8093620085ED8A95F1F700000895F5
:100A70001FB8779BFECF80E88FB9779BFECF809120
:100A8000620088608093620080916200877F80931B
:100A9000620085ED8A95F1F70000089590E131E05C
:100AA00020E23FB9779BFECF2FB9779BFECF809195
:100AB000620088608093620080916200877F8093EB
:100AC000620085ED8A95F1F70000915051F7089585
:100AD00091E09FB9779BFECF8FB9779BFECF809136
:100AE000620088608093620080916200877F8093BB
:100AF00062000895FC0160E050E040E071E04E0FBC
:100B00005F1FDA018C917FB9779BFECF8FB9779BFE
:100B1000FECF909162009860909362009091620085
:100B2000977F90936200B5EDBA95F1F700006F5F83
:100B3000462F50E0DF010D900020E9F79D012E1BAC
:100B40003F0B2250310924173507C8F608958FEF5F
:100B500099EF0197F1F700C0000088E080936100F1
:100B60001FB8779BFECF80E38FB9779BFECF809134
:100B7000620088608093620080916200877F80932A
:100B800062008FE59DE60197F1F700C000001FB8F5
:100B9000779BFECF80E38FB9779BFECF8091620079
:100BA00088608093620080916200877F80936200FA
:100BB0008FE59DE60197F1F700C000001FB8779B15
:100BC000FECF80E38FB9779BFECF80916200886073
:100BD0008093620080916200877F809362008FE53E
:100BE0009DE60197F1F700C000001FB8779BFECF8C
:100BF00088E38FB9779BFECF8091620088608093F5
:100C0000620080916200877F809362008FE19EE4A2
:100C10000197F1F700C000001FB8779BFECF88E076
:100C20008FB9779BFECF80916200886080936200CD
:100C300080916200877F809362008FE19EE401973C
:100C4000F1F700C000001FB8779BFECF81E08FB99D
:100C5000779BFECF809162008860809362008091D4
:100C60006200877F809362008FE19EE40197F1F735
:100C700000C000001FB8779BFECF86E08FB9779B3E
:100C8000FECF809162008860809362008091620054
:100C9000877F809362008FE19EE40197F1F700C0A7
:100CA00000001FB8779BFECF8CE08FB9779BFECFFB
:100CB0008091620088608093620080916200877FEB
:100CC000809362008FE19EE40197F1F700C000007D
:100CD00008956F927F928F929F92AF92BF92CF9220
:100CE000DF92EF92FF920F931F93CF93DF93CDB7D5
:100CF000DEB769970FB6F894DEBF0FBECDBFF42EF6
:100D0000122F002359F04B015C018824B7FC839417
:100D10009924AA24BB24082D97FDAFC011117DC0D2
:100D20009E012F5F3F4F69012AE030E040E050E034
:100D30000E94E408F62F2A8B3B8B4C8B5D8B6E8BCD
:100D40007F8B888F998F6A897B898C899D89E1E067
:100D5000E10FD601A10FB11DF05DFC931E2F6115AF
:100D600071058105910501F7FF20E1F020E3E11015
:100D700001C020E2EF15B0F44E2F50E0D601A40FD1
:100D8000B51F82E090E08C0F9D1F480F591F8FEF19
:100D90008F0D8E1B840F952F911D2D93A817B907CA
:100DA000E1F7EF2D002331F0D601AE0FB11D8DE23A
:100DB0008C93EF5FE150F0E03196EC0DFD1D91E07A
:100DC00082919FB9779BFECF8FB9779BFECF8091A1
:100DD000620088608093620080916200877F8093C8
:100DE0006200A5EDAA95F1F70000CE16DF0641F7E7
:100DF00069960FB6F894DEBF0FBECDBFDF91CF91DD
:100E00001F910F91FF90EF90DF90CF90BF90AF9028
:100E10009F908F907F906F900895DE0111966D01E5
:100E20004D015D01BFEFAB1ABB0A66246A94610EE7
:100E30006A0C7B2C711C04C095012F5F3F4F590138
:100E40002AE030E040E050E00E94E408E62F2A8BE0
:100E50003B8B4C8B5D8B6A897B898C899D89E05D9E
:100E6000D401EC934501A614B70431F7F601E10F64
:100E7000F11D2EE220831F5F57CF909580957095CE
:100E800061957F4F8F4F9F4F49CF5F926F927F92B7
:100E90008F929F92AF92BF92CF92DF92EF92FF928A
:100EA0000F931F93CF93DF93CDB7DEB761970FB644
:100EB000F894DEBF0FBECDBF4C01562E142F9C01FF
:100EC00097FF04C022273327281B390B111128C094
:100ED000AE014F5F5F4F7A0101C01A2F6AE070E0E8
:100EE000C9010E94D008462F242F372FA1E0A10F5F
:100EF000F701E10FF11D805D80832115310569F750
:100F0000011137C097FC8EC0552041F08A2F90E028
:100F1000252D30E040E2A51508F479C0EA2F38C04D
:100F2000CE0101967C016C013C019FEF691A790AA0
:100F3000AA24AA94A10EA60CB72CB11C04C0A3012C
:100F40004F5F5F4F3A016AE070E0C9010E94D0082C
:100F5000462F242F372F805DF60180836301A6146E
:100F6000B70469F7F701E10FF11D8EE280831F5F7F
:100F7000B5CF092D001F0027001F51103DC00023D1
:100F800069F2E1E0EA0FAE0DBF2DB11D8DE28C9349
:100F9000E150F0E03196EE0DFF1D91E082919FB996
:100FA000779BFECF8FB9779BFECF809162008860E0
:100FB0008093620080916200877F8093620045ED9C
:100FC0004A95F1F70000EE16FF0641F761960FB65D
:100FD000F894DEBF0FBECDBFDF91CF911F910F916F
:100FE000FF90EF90DF90CF90BF90AF909F908F9049
:100FF0007F906F905F9008958A2F90E0E52DE01B21
:10100000FF0B9F0140E38E179F070CF0B8CFAF5F37
:101010008E0D9F1DFC0140838A2F90E0821793075D
:10102000B4F3ADCFE2E0E10FAE0DBF2DB11D8DE207
:101030008C93552009F4ACCF8E2F90E0252D30E015
:10104000AE2F40E28217930714F3A2CF87EF87BB3E
:1010500081E084BB88E082B983B9169A8A9A8DB1FF
:1010600080658DB9709A87B7816087BF83B78560C7
:1010700083BF80B7886080BF8FB583608FBD8EB51A
:101080008B608EBD10927A0085B5896785BD809191
:101090008B00836C80938B0080918A0089608093A1
:1010A0008A0010928C008FEF95E2909387008093D6
:1010B000860087B1806C87B986B18D6C86B90E9435
:1010C000A70578944CEFF42E1FEFFABA1BBB08B3B8
:1010D00088B3806788BBD0E0C0E0FE01EE0FFF1F41
:1010E000ED5CFE4F8081918129B3880F991F906E2E
:1010F00030E00C2E02C0359527950A94E2F7217056
:101100003327822B932B918380838081918181155A
:10111000904F81F12196C430D105F9F608BB1ABB76
:1011200080913C01882381F18091010180680E94B7
:1011300059010E946C012EE231E041E051E0682F3C
:1011400080910401909105010E94FC0280910401AC
:101150009091050181309105E1F082309105C9F04F
:10116000892B09F0B2CF6091300180912F010E944C
:101170002A01ABCF60910401709105014EE251E06C
:10118000CE010E94C701C6CF809101010E94590182
:10119000D0CF60910301809102010E942A0195CF76
:1011A00097FB072E16F4009407D077FD09D00E9414
:1011B000030907FC05D03EF4909581959F4F089553
:1011C000709561957F4F0895052E97FB1EF400944E
:1011D0000E94FB0857FD07D00E94170907FC03D0A7
:1011E0004EF40C94FB0850954095309521953F4F57
:1011F0004F4F5F4F089590958095709561957F4F03
:101200008F4F9F4F0895AA1BBB1B51E107C0AA1F18
:10121000BB1FA617B70710F0A61BB70B881F991F97
:101220005A95A9F780959095BC01CD010895A1E24A
:101230001A2EAA1BBB1BFD010DC0AA1FBB1FEE1F50
:10124000FF1FA217B307E407F50720F0A21BB30B9B
:10125000E40BF50B661F771F881F991F1A9469F717
:1012600060957095809590959B01AC01BD01CF0173
:061270000895F894FFCF81
:101276000100000C0200C0F9A4B0999282F880988F
:10128600FFFC414C41524D2053455400414C4152C4
:0E1296004D45442044495341424C454400001C
:00000001FF
