:100000000C9446000C9465000C9465000C946500FB
:100010000C9465000C9465000C9465000C946500CC
:100020000C9465000C9465000C9465000C946500BC
:100030000C9465000C9465000C94CF020C94650040
:100040000C9448020C9465000C9439040C946500DF
:100050000C9465000C94E1020C9465000C9465000E
:100060000C9465000C9465000C9465000C9465007C
:100070000C9465000C9465000C9465000C9465006C
:100080000C9465000C945A090C94650011241FBE51
:10009000CFEFD0E1DEBFCDBF11E0A0E0B1E0E8E7F7
:1000A000FDE100E00BBF02C007900D92A833B1073D
:1000B000D9F721E0A8E3B1E001C01D92A93DB20744
:1000C000E1F70E94A00A0C94BA0E0C94000087B7C6
:1000D000816087BF83B7856083BF80B7886080BF3A
:1000E00008958FB583608FBD8EB58B608EBD1092E5
:1000F0007A00089585B5896785BD0895EBE8F0E03D
:100100008081836C8083EAE8F0E08081896080836D
:1001100010928C000895169A8A9A8DB180658DB9D7
:10012000709A089587B1806C87B986B18D6C86B955
:100130000895482FE82FF0E0EE0FFF1FE35CFE4F1D
:100140002081318199B3892F90E002C095958795E0
:100150004A95E2F781709927220F331F306E822B68
:10016000932B918380832081318181E02115304F51
:1001700009F080E00895CF93DF93CDB7DEB72C97D9
:100180000FB6F894DEBF0FBECDBF2CE0E9E0F1E082
:10019000DE01119601900D922A95E1F721E030E001
:1001A0002C0F3D1F820F931FFC0180812C960FB6F0
:1001B000F894DEBF0FBECDBFDF91CF910895FC0153
:1001C000808180FF04C08AE080939D0108958BE0C8
:1001D00080939D010895CF93DF93CDB7DEB72C9721
:1001E0000FB6F894DEBF0FBECDBF20EA31E080E449
:1001F0005FEF88BBF90192919F014CE0E9E0F1E0EB
:10020000DE01119601900D924A95E1F7E1E0F0E0F0
:10021000EC0FFD1FE90FF11D90819BBBEFE9FFE0A3
:100220003197F1F700C000005BBB807F8051F1E0A7
:100230002B393F07F1F62C960FB6F894DEBF0FBEB0
:10024000CDBFDF91CF910895EBE9F1E090E047E673
:10025000923030F09230B9F49F5F31969230D0F7FF
:100260008402212D11242595259587FD2395322F74
:10027000330F330F320F330F831B8083822F943061
:1002800059F70C94EB006402212D11242595259536
:1002900067FD2395322F330F330F320F330F631B5C
:1002A0006083622FECCF1E9A8FB9779BFECF929A14
:1002B00083B183B985E08A95F1F7000092981E9882
:1002C00085E08A95F1F700008FB10895CF93609192
:1002D0003C0170E0E0913B01F0910001A82FB0E0FB
:1002E00030E020E0C0E0AD01022E02C055954795F8
:1002F0000A94E2F7942F9370AB01022E02C0559539
:1003000047950A94E2F7437055274230510551F161
:100310004330510589F14130510549F1913051F097
:10032000923061F4F13041F4EF5FE43039F4CF5FA3
:10033000E0E004C0F13081F0E0E0F0E02E5F3F4FFC
:100340002430310581F6F0930001E0933B01809366
:100350003C018C2FCF910895EF5FE43079F7C150C5
:10036000E0E0ECCF992331F39330E1F2E7CF933023
:1003700009F39923B9F2E2CF9230E1F2913091F290
:10038000DDCF8230910581F164F40097E9F00197A7
:10039000A1F46230710509F45CC0672B09F45EC0FA
:1003A000089583309105C9F1049739F480910301D0
:1003B00091E0892780930301089582E090E0909373
:1003C000080180930701089562307105C1F1613021
:1003D000710531F787B7816087BF82E090E0909325
:1003E000080180930701089520914701222329F3F2
:1003F00020910401265FFA012083209105012183C9
:1004000020910601228327B72B7F27BF1092470137
:1004100090930801809307010895809147018823F4
:1004200061F287B78B7F87BF109247011092480116
:1004300082E090E09093080180930701089587B7C8
:100440008E7F87BF81E090E0909308018093070141
:1004500008951092080110920701089582E090E03B
:1004600090930801809307010E942D0681E08093FC
:1004700048010895FC018181680F618382816C339A
:1004800018F08F5F82831182883108F012820895FC
:100490001F920F920FB60F9211240BB60F922F934B
:1004A0003F934F935F936F937F938F939F93AF93FC
:1004B000BF93EF93FF93809104018F5F80930401BA
:1004C000809104018C3338F0809105018F5F809317
:1004D000050110920401809105018C3338F0809160
:1004E00006018F5F8093060110920501809106013D
:1004F000883110F0109206018091040180FD33C014
:100500008BE080939D019091060180913A019817AC
:1005100099F1209104018DEC289F812D112486955D
:100520008695982F990F990F890F281306C08091EF
:10053000030191E089278093030182E70E94610A09
:10054000FF91EF91BF91AF919F918F917F916F91AB
:100550005F914F913F912F910F900BBE0F900FBE67
:100560000F901F9018958AE080939D01909106014D
:1005700080913A019813CDCF909105018091390176
:100580009813C7CF90910401809138019813C1CF7F
:1005900087B7846087BF81E080934701BACF1F92FD
:1005A0000F920FB60F9211248F939F9385B391E012
:1005B000892785BB9F918F910F900FBE0F901F9041
:1005C00018951F920F920FB60F9211248F939F933D
:1005D00084B195B1969587959695879596958795CB
:1005E000845283BD369A9F918F910F900FBE0F90CA
:1005F0001F90189594E1899F802D112420918600E9
:1006000030918700082E000C990B280F391F2D3FC1
:100610003340D8F42091860030918700280F391F8D
:100620002431310558F02091860030918700820FE7
:10063000931F9093870080938600089584E190E053
:10064000909387008093860008958CEF93E09093B9
:100650008700809386000895611112C09C01220FCB
:10066000331F220F331F220F331F280F391FADEC0A
:10067000BCEC0E949E0B96958795969587958096E3
:10068000089542E067ED71E080E90E94470A8FE338
:100690009FE10197F1F700C000008091D70190E041
:1006A00090934601809345018091450190914601C8
:1006B000982F8827909346018093450180914501AA
:1006C000909146012091D801822B9093460180930E
:1006D00045018091450190914601969587959695A3
:1006E00087959093460180934501809145019091B3
:1006F000460196958795929582958F7089279F7070
:1007000089279093460180934501809145019091FE
:10071000460120910301211112C09C01220F331FB9
:10072000220F331F220F331F280F391FADECBCECF3
:100730000E949E0B969587959695879580969093A7
:1007400046018093450180E98093740008950F93DA
:100750001F93CF93DF93CDB7DEB7A0970FB6F89472
:10076000DEBF0FBECDBF20E230E03A832983FE0119
:1007700033962EE1DF011D922A95E9F79F938F931F
:100780007F936F9385E191E09F938F938E010F5F2D
:100790001F4F1F930F930E94E30BC8010E94B404E4
:1007A0000FB6F894DEBF0FBECDBFA0960FB6F8947B
:1007B000DEBF0FBECDBFDF91CF911F910F91089586
:1007C00081309105B1F130F1029719F580918600E1
:1007D0009091870024E1629F602D1124062E000C69
:1007E000770B860F971F8D3F934090F58091860081
:1007F00090918700860F971F449788F1809186001B
:1008000090918700680F791F70938700609386002E
:1008100008950895F9018181680F618382816C33A5
:1008200018F08F5F82831182883190F3F901128270
:100830000895FA018181680F618382816C3318F019
:100840008F5F82831182883118F3FA011282089532
:100850008CEF93E09093870080938600089584E165
:1008600090E09093870080938600089582E70C942F
:10087000610A1F920F920FB60F9211240BB60F92BE
:100880002F933F934F935F936F937F938F939F9398
:10089000AF93BF93EF93FF930E94950A082E000C2D
:1008A000990B909302018093010180910101909135
:1008B0000201982F882790930201809301010E94E2
:1008C000950A2091010130910201082E000C990B2C
:1008D000822B932B9093020180930101809101015F
:1008E0009091020120910301211112C09C01220F5D
:1008F000331F220F331F220F331F280F391FADEC78
:10090000BCEC0E949E0B9695879596958795809650
:100910009093020180930101FF91EF91BF91AF91FC
:100920009F918F917F916F915F914F913F912F9107
:100930000F900BBE0F900FBE0F901F90189591E077
:10094000811101C090E09FB9779BFECF6FB9779B73
:10095000FECF809162008860809362008091620087
:10096000877F80936200089520914901820F911D35
:10097000FC01808191E09FB9779BFECF8FB9779B77
:10098000FECF809162008860809362008091620057
:10099000877F80936200809149018F5F8093490136
:1009A0008031D9F0803209F0089585ED8A95F1F70C
:1009B00000001FB8779BFECF80E88FB9779BFECFF2
:1009C0008091620088608093620080916200877FDE
:1009D00080936200109249010895F5EDFA95F1F7C0
:1009E00000001FB8779BFECF80EC8FB9779BFECFBE
:1009F0008091620088608093620080916200877FAE
:100A00008093620080914901CDCF660F660F660F1B
:100A1000605C1FB8779BFECF6FB9779BFECF2091AC
:100A2000620028602093620020916200277F20935B
:100A3000620025ED2A95F1F70000FC019C01285F7A
:100A40003F4F91E081919FB9779BFECF8FB9779B04
:100A5000FECF809162008860809362008091620086
:100A6000877F8093620085ED8A95F1F70000E21799
:100A7000F30741F708958D5F8295880F880F807C7A
:100A80006058680F1FB8779BFECF6FB9779BFECF7A
:100A90008091620088608093620080916200877F0D
:100AA000809362000895811113C081E08FB9779B14
:100AB000FECF80E38FB9779BFECF80916200886084
:100AC0008093620080916200877F80936200089526
:100AD0008436C0F48A3070F59DEC899F912D1124E5
:100AE000969596959695292F220F220F920F990F82
:100AF000891B805D91E09FB9779BFECF8FB9779B73
:100B0000FECFDBCF99E2899F912D112492959F70A2
:100B1000905D21E02FB9779BFECF9FB9779BFECFE9
:100B20009091620098609093620090916200977F2C
:100B30009093620099E2899F912D112492959F7064
:100B4000382F24E6929F301911242DEC329F912DDD
:100B50001124969596959695905D21E02FB9779BF7
:100B6000FECF9FB9779BFECF9091620098609093E3
:100B7000620090916200977F90936200ADCF87FFF3
:100B800019C091E09FB9779BFECF9DE29FB9779BFB
:100B9000FECF909162009860909362009091620005
:100BA000977F9093620095ED9A95F1F700008195FB
:100BB0000C9453050C9453051FB8779BFECF8EE021
:100BC0008FB9779BFECF809162008860809362002E
:100BD00080916200877F8093620008951FB8779BA1
:100BE000FECF8CE08FB9779BFECF8091620088604A
:100BF0008093620080916200877F809362000895F5
:100C00001FB8779BFECF8EE18FB9779BFECF809187
:100C1000620088608093620080916200877F809389
:100C2000620008951FB8779BFECF88E18FB9779B4C
:100C3000FECF8091620088608093620080916200A4
:100C4000877F809362000895E2E6F0E0808188600B
:100C500080838081877F808308951FB8779BFECF34
:100C600081E08FB9779BFECF80916200886080938E
:100C7000620080916200877F809362008FE19CE137
:100C80000197F1F700C0000008951FB8779BFECFD1
:100C900082E08FB9779BFECF80916200886080935D
:100CA000620080916200877F809362008FE697E107
:100CB0000197F1F700C0000008951FB8779BFECFA1
:100CC00080EC8FB9779BFECF809162008860809323
:100CD000620080916200877F8093620008951FB850
:100CE000779BFECF80E88FB9779BFECF8091620023
:100CF00088608093620080916200877F80936200A9
:100D0000089590E131E020E23FB9779BFECF2FB903
:100D1000779BFECF80916200886080936200809113
:100D20006200877F8093620085ED8A95F1F700006D
:100D3000915051F7089591E09FB9779BFECF8FB9FD
:100D4000779BFECF809162008860809362008091E3
:100D50006200877F809362000895FC0160E050E0AC
:100D600040E071E04E0F5F1FDA018C917FB9779BF5
:100D7000FECF8FB9779BFECF9091620098609093E1
:100D8000620090916200977F90936200B5EDBA95F2
:100D9000F1F700006F5F462F50E0DF010D9000205B
:100DA000E9F79D012E1B3F0B22503109241735070F
:100DB000C8F608958FEF99EF0197F1F700C0000092
:100DC00088E0809361001FB8779BFECF80E38FB9E6
:100DD000779BFECF80916200886080936200809153
:100DE0006200877F809362008FE59DE60197F1F7AF
:100DF00000C000001FB8779BFECF80E38FB9779BC0
:100E0000FECF8091620088608093620080916200D2
:100E1000877F809362008FE59DE60197F1F700C020
:100E200000001FB8779BFECF80E38FB9779BFECF82
:100E30008091620088608093620080916200877F69
:100E4000809362008FE59DE60197F1F700C00000F6
:100E50001FB8779BFECF88E38FB9779BFECF809139
:100E6000620088608093620080916200877F809337
:100E700062008FE19EE40197F1F700C000001FB807
:100E8000779BFECF88E08FB9779BFECF8091620081
:100E900088608093620080916200877F8093620007
:100EA0008FE19EE40197F1F700C000001FB8779B27
:100EB000FECF81E08FB9779BFECF80916200886082
:100EC0008093620080916200877F809362008FE14F
:100ED0009EE40197F1F700C000001FB8779BFECF9A
:100EE00086E08FB9779BFECF809162008860809307
:100EF000620080916200877F809362008FE19EE4B0
:100F00000197F1F700C000001FB8779BFECF8CE07F
:100F10008FB9779BFECF80916200886080936200DA
:100F200080916200877F809362008FE19EE4019749
:100F3000F1F700C0000008956F927F928F929F9208
:100F4000AF92BF92CF92DF92EF92FF920F931F93D7
:100F5000CF93DF93CDB7DEB769970FB6F894DEBFB6
:100F60000FBECDBFF42E122F002359F04B015C01B0
:100F70008824B7FC83949924AA24BB24082D97FDC8
:100F8000AFC011117DC09E012F5F3F4F69012AE064
:100F900030E040E050E00E94760BF62F2A8B3B8B2E
:100FA0004C8B5D8B6E8B7F8B888F998F6A897B8949
:100FB0008C899D89E1E0E10FD601A10FB11DF05DA3
:100FC000FC931E2F611571058105910501F7FF2026
:100FD000E1F020E3E11001C020E2EF15B0F44E2F64
:100FE00050E0D601A40FB51F82E090E08C0F9D1F4A
:100FF000480F591F8FEF8F0D8E1B840F952F911D5A
:101000002D93A817B907E1F7EF2D002331F0D60192
:10101000AE0FB11D8DE28C93EF5FE150F0E03196A1
:10102000EC0DFD1D91E082919FB9779BFECF8FB9AA
:10103000779BFECF809162008860809362008091F0
:101040006200877F80936200A5EDAA95F1F700000A
:10105000CE16DF0641F769960FB6F894DEBF0FBED5
:10106000CDBFDF91CF911F910F91FF90EF90DF9057
:10107000CF90BF90AF909F908F907F906F9008958A
:10108000DE0111966D014D015D01BFEFAB1ABB0A88
:1010900066246A94610E6A0C7B2C711C04C0950155
:1010A0002F5F3F4F59012AE030E040E050E00E94BE
:1010B000760BE62F2A8B3B8B4C8B5D8B6A897B8969
:1010C0008C899D89E05DD401EC934501A614B70499
:1010D00031F7F601E10FF11D2EE220831F5F57CF9C
:1010E00090958095709561957F4F8F4F9F4F49CF19
:1010F0005F926F927F928F929F92AF92BF92CF92A8
:10110000DF92EF92FF920F931F93CF93DF93CDB7B0
:10111000DEB761970FB6F894DEBF0FBECDBF3C01BE
:10112000562E142F022F9C0197FF04C0222733272D
:10113000281B390B111128C0AE014F5F5F4F7A0198
:1011400001C01A2F6AE070E0C9010E94620B462FAD
:10115000242F372FA1E0A10FF701E10FF11D805DD2
:1011600080832115310569F7011137C077FC8EC0E6
:10117000552041F08A2F90E0252D30E040E2A51562
:1011800008F479C0EA2F38C0CE0101967C015C01D9
:101190006C019FEFC91AD90A88248A94810E8C0C9D
:1011A0009D2C911C04C0A6014F5F5F4F6A016AE04D
:1011B00070E0C9010E94620B462F242F372F805DFB
:1011C000F501808356018C149D0469F7F701E10F46
:1011D000F11D8EE280831F5FB5CF072D001F002712
:1011E000001F51103DC0002369F2E1E0EA0FAE0D8F
:1011F000BF2DB11D8DE28C93E150F0E03196EE0DE4
:10120000FF1D91E082919FB9779BFECF8FB9779BAD
:10121000FECF8091620088608093620080916200BE
:10122000877F8093620045ED4A95F1F70000EE1646
:10123000FF0641F761960FB6F894DEBF0FBECDBF33
:10124000DF91CF911F910F91FF90EF90DF90CF90A2
:10125000BF90AF909F908F907F906F905F90089518
:101260008A2F90E0E52DE01BFF0B9F0140E38E17D6
:101270009F070CF0B8CFAF5F8E0D9F1DFC01408320
:101280008A2F90E082179307B4F3ADCFE2E0E10F2D
:10129000AE0DBF2DB11D8DE28C93552009F4ACCF5E
:1012A0008E2F90E0252D30E0AE2F40E2821793077D
:1012B00014F3A2CF1F920F920FB60F9211240BB608
:1012C0000F922F938F939F93EF93FF93E091710071
:1012D000E850E13598F0809171008093D00184E06E
:1012E00080937400FF91EF919F918F912F910F90B8
:1012F0000BBE0F900FBE0F901F901895F0E0ED57AA
:10130000F64F0C94950BE4096B096B096B096B099B
:101310006B096B096B09E4096B096B096B096B09B4
:101320006B096B096B09EE096B096B096B096B099A
:101330006B096B096B096B096B096B096B096B090D
:101340006B096B096B09EE096B096B096B096B097A
:101350006B096B096B096B096B096B096B096B09ED
:101360006B096B096B09060A6B096B096B096B0941
:101370006B096B096B090A0A6B096B096B096B092D
:101380006B096B096B096B096B096B096B096B09BD
:101390006B096B096B09170A6B096B096B096B0900
:1013A0006B096B096B09D409E0914A018091D10165
:1013B0009091D201E80FF92FF11D80917300808385
:1013C00084E9809374008ECF8091D3018093730061
:1013D00010924A0185E88093740084CFE0914A011D
:1013E0008091D401E81760F78091D1019091D201EA
:1013F00021E02E0F20934A01E80FF92FF11D808183
:101400008093730085E8809374006CCF85EA8093A5
:10141000740068CF20914A018091D4018150990BCA
:1014200028171906DCF485EC809374005BCF80915B
:10143000D1019091D201E0914A0121E02E0F209339
:101440004A01E80FF92FF11D80917300808380918C
:10145000D4018150990B281719062CF385E8809345
:10146000740040CF80917400817008959091740051
:1014700090FDFCCF8E7F8093D3017093D201609357
:10148000D1014093D40185EA80937400089590912E
:10149000740090FDFCCF81608093D3017093D201E2
:1014A0006093D1014093D40185EA8093740008953C
:1014B0008FEF80937300109271008CE08093700026
:1014C00008955D9BFECF8CB95D9BFECF0895FC0116
:1014D0009081992349F031965D9BFECF9CB95D9B2D
:1014E000FECF91919111F8CF08959C01FC01449198
:1014F000442369F00196F90124915D9BFECF2CB93C
:101500005D9BFECF9C01FC0144914111F3CF0895F6
:101510008AB188698AB9E5E9F0E0808186608083D4
:101520001092900087E689B9089580E89EE302C092
:10153000019721F05F9BFCCF8CB1089580E0089566
:1015400087EF87BB81E084BB88E082B983B9169AB4
:101550008A9A8DB180658DB9709A87B7816087BF8F
:1015600083B7856083BF80B7886080BF8FB5836095
:101570008FBD8EB58B608EBD10927A0085B5896760
:1015800085BD80918B00836C80938B0080918A0055
:10159000896080938A0010928C0087B1806C87B933
:1015A00086B18D6C86B90E94DA060E94580A0E94A4
:1015B000880A78941092D50141E065ED71E080E0F1
:1015C0000E94470A8FE39FE10197F1F700C00000F6
:1015D0004CEFF42E1FEFFABA1BBB08B388B3806739
:1015E00088BBD0E0C0E0FE01EE0FFF1FE35CFE4FC2
:1015F0008081918129B3880F991F906E30E00C2E65
:1016000002C0359527950A94E2F721703327822B83
:10161000932B91838083808191818115904FE1F19B
:101620002196C530D105F9F608BB1ABB8091480157
:101630008823E1F18091040180680E9453010E9497
:10164000660128E331E044E051E0682F8091070112
:10165000909108010E94E0030E9441036091010102
:101660007091020180914501909146010E94A7036B
:10167000809107019091080181309105E1F082305D
:101680009105C9F0892B09F0A6CF60913A018091AC
:1016900039010E9424019FCF6091070170910801D8
:1016A00048E351E0CE010E94C101BACF809104010C
:1016B0000E945301C4CF60910601809105010E94F0
:1016C000240189CF97FB072E16F4009407D077FDED
:1016D00009D00E94AD0B07FC05D03EF49095819592
:1016E0009F4F0895709561957F4F0895052E97FB44
:1016F0001EF400940E948D0B57FD07D00E94C10B71
:1017000007FC03D04EF40C948D0B5095409530950A
:1017100021953F4F4F4F5F4F08959095809570955D
:1017200061957F4F8F4F9F4F0895EE0FFF1F00244D
:10173000001C0BBE0790F691E02D0994A29FB0010A
:10174000B39FC001A39F700D811D1124911DB29FF5
:10175000700D811D1124911D0895AA1BBB1B51E121
:1017600007C0AA1FBB1FA617B70710F0A61BB70B11
:10177000881F991F5A95A9F780959095BC01CD01B6
:101780000895A1E21A2EAA1BBB1BFD010DC0AA1FC2
:10179000BB1FEE1FFF1FA217B307E407F50720F0DA
:1017A000A21BB30BE40BF50B661F771F881F991F55
:1017B0001A9469F760957095809590959B01AC019E
:1017C000BD01CF0108950F931F93CF93DF93CDB742
:1017D000DEB72E970FB6F894DEBF0FBECDBF0D89D2
:1017E0001E8986E08C831A8309838FEF9FE79E838F
:1017F0008D83AE01475E5F4F6F89788DCE01019674
:101800000E94130C2F813885020F131FF8011082DC
:101810002E960FB6F894DEBF0FBECDBFDF91CF91ED
:101820001F910F9108952F923F924F925F926F9266
:101830007F928F929F92AF92BF92CF92DF92EF9260
:10184000FF920F931F93CF93DF93CDB7DEB72B9704
:101850000FB6F894DEBF0FBECDBF7C013B018A01FD
:10186000FC0117821682838181FFDDC1CE010196C2
:101870005C01F7019381F30193FD859193FF8191C1
:101880003F01882309F453C1853239F493FD8591D2
:1018900093FF81913F01853229F4B70190E00E94C6
:1018A0002C0EE7CF912C212C312CFFE1F31538F0D1
:1018B0008B3211F190F4803209F1833229F137FC37
:1018C0003CC020ED280F2A3050F536FE20C08AE0BB
:1018D000989E200D1124922E06C08D3291F08033F7
:1018E00071F7689430F8F30193FD859193FF81912E
:1018F0003F018111DACF21C0689431F8689432F841
:10190000F2CF689433F8EFCF689434F8ECCFEAE084
:101910002E9E200D1124222E689435F8E4CF8E32AD
:1019200029F436FC04C1689436F8DDCF8C3619F4FE
:10193000689437F8D8CF8836B1F2982F9F7D9554A8
:101940009330E0F08336A1F18337C1F1833509F09C
:1019500063C02801F2E04F0E511CF801C080D18015
:10196000692D70E036FC02C06FEF7FEFC6010E9468
:10197000160E4C01689437F882010AC00C5F1F4FA5
:10198000FFE3F98388248394912C6501E89437F868
:1019900033FE2DC0522C8114910471F5552009F4A9
:1019A00068CFB70180E290E00E942C0E5A94F6CFE7
:1019B000F801808189830E5F1F4FE4CF2801F2E098
:1019C0004F0E511CF801C080D180692D70E036FCAB
:1019D00002C06FEF7FEFC6010E94210E4C01820111
:1019E000D5CFB70180E290E00E942C0E2A942814F3
:1019F000190409F0B0F7CECFF60137FC859137FE18
:101A000081916F01B70190E00E942C0E51105A9401
:101A1000F1E08F1A9108BFCF843619F0893609F0AA
:101A200077C0F80137FE6BC060817181828193813C
:101A30000C5F1F4FF32DFF763F2E97FF09C0909547
:101A40008095709561957F4F8F4F9F4F689437F8C1
:101A50002AE030E0A5010E945C0EC82ECA188C2C2A
:101A6000432C36FE0CC0E89440F8C91440F434FE10
:101A700005C032FC03C0F32DFE7E4F2E892C44FEA0
:101A8000AAC0FE01EC0DF11D8081803309F09CC0DD
:101A9000242D297E422E842D8870582E43FCAAC006
:101AA00040FEA4C09C2C821418F42C0C922C981884
:101AB00044FEA6C0B70180E390E00E942C0E42FED7
:101AC00009C088E790E041FE02C088E590E0B701D8
:101AD0000E942C0EC91408F49FC0CA94D12C9FEF09
:101AE000C91AD90ACA0CDB1CF60182916F01B70131
:101AF00090E00E942C0EAC14BD04B1F74FCF608172
:101B00007181072E000C880B990B0E5F1F4F92CF2F
:101B1000D32CE894D4F82AE030E08537E1F1232D86
:101B2000297FD22E8F36A9F1F0F4883551F1F701D3
:101B3000868197812B960FB6F894DEBF0FBECDBF7E
:101B4000DF91CF911F910F91FF90EF90DF90CF9099
:101B5000BF90AF909F908F907F906F905F904F90CD
:101B60003F902F900895803749F0883701F7D4FED1
:101B700002C06894D2F820E130E00DC06894D4F837
:101B8000F6CF34FE03C0822F8660D82E20E132E0EB
:101B900002C028E030E0F801D7FE0FC060817181FB
:101BA000828193810C5F1F4FA5010E945C0EC82E9D
:101BB000CA183D2CE89437F852CF6081718190E0CB
:101BC00080E00E5F1F4FF0CF42FC02C0839463CFD2
:101BD0008394839460CF842D867809F45CCFF6CF0C
:101BE000B70180E290E00E942C0E83948214C0F32F
:101BF000512C5ECF522C5818821408F459CFF8CFCC
:101C0000842D867809F466CF8BE241FE80E247FCA2
:101C10008DE2B70190E05CCFB70180E390E00E94D5
:101C20002C0E9A9457CF8FEF9FEF84CFFC01059035
:101C3000615070400110D8F7809590958E0F9F1FCE
:101C40000895FC016150704001900110D8F7809513
:101C500090958E0F9F1F08950F931F93CF93DF933F
:101C6000182F092FEB018B8181FD09C01FEF0FEFAA
:101C7000812F902FDF91CF911F910F91089582FFB7
:101C800014C02E813F818C819D81281739073CF437
:101C9000E881F981CF0101969983888310838E8131
:101CA0009F8101969F838E83E3CFE885F985812FFD
:101CB0000995892BA1F3DACFFA01AA27283051F12F
:101CC000203181F1E8946F936E7F6E5F7F4F8F4F6D
:101CD0009F4FAF4FB1E03ED0B4E03CD0670F781FCC
:101CE000891F9A1FA11D680F791F8A1F911DA11DB1
:101CF0006A0F711D811D911DA11D20D009F46894EA
:101D00003F912AE0269F11243019305D3193DEF691
:101D1000CF010895462F4770405D4193B3E00FD047
:101D2000C9F7F6CF462F4F70405D4A3318F0495D32
:101D300031FD4052419302D0A9F7EACFB4E0A69515
:101D40009795879577956795BA95C9F70097610537
:101D5000710508959B01AC010A2E0694579547958D
:101D600037952795BA95C9F7620F731F841F951F82
:081D7000A01D0895F894FFCFB7
:101D78000161000100000C0200C0F9A4B099928230
:101D8800F88098FFFC52656D6F74653A20256420D1
:101D980020202020204C6F63616C3A20256420208D
:081DA800202020202020000073
:00000001FF
