S00C00006C6162352E73726563B4
S11300000C9446000C9465000C9465000C946500F7
S11300100C9465000C9465000C9465000C946500C8
S11300200C9465000C9465000C9465000C946500B8
S11300300C9465000C9465000C94A4020C94650067
S11300400C944C020C9465000C94CC030C94650045
S11300500C9465000C94B6020C9465000C94650035
S11300600C9465000C9465000C9465000C94650078
S11300700C9465000C9465000C9465000C94650068
S11300800C9465000C94C9080C94650011241FBEDF
S1130090CFEFD0E1DEBFCDBF11E0A0E0B1E0E2E4FC
S11300A0F9E100E00BBF02C007900D92AA33B1073B
S11300B0D9F721E0AAE3B1E001C01D92AB3DB2073C
S11300C0E1F70E940F0A0C949F0C0C94000087B770
S11300D0816087BF83B7856083BF80B7886080BF36
S11300E008958FB583608FBD8EB58B608EBD1092E1
S11300F07A00089585B5896785BD0895EBE8F0E039
S11301008081836C8083EAE8F0E080818960808369
S113011010928C000895169A8A9A8DB180658DB9D3
S1130120709A089587B1806C87B986B18D6C86B951
S11301300895482FE82FF0E0EE0FFF1FE15CFE4F1B
S11301402081318199B3892F90E002C095958795DC
S11301504A95E2F781709927220F331F306E822B64
S1130160932B918380832081318181E02115304F4D
S113017009F080E00895CF93DF93CDB7DEB72C97D5
S11301800FB6F894DEBF0FBECDBF2CE0E7E0F1E080
S1130190DE01119601900D922A95E1F721E030E0FD
S11301A02C0F3D1F820F931FFC0180812C960FB6EC
S11301B0F894DEBF0FBECDBFDF91CF910895FC014F
S11301C0808180FF04C08AE080939F0108958BE0C2
S11301D080939F010895CF93DF93CDB7DEB72C971B
S11301E00FB6F894DEBF0FBECDBF22EA31E080E443
S11301F05FEF88BBF90192919F014CE0E7E0F1E0E9
S1130200DE01119601900D924A95E1F7E1E0F0E0EC
S1130210EC0FFD1FE90FF11D90819BBBEFE9FFE09F
S11302203197F1F700C000005BBB807F8051F1E0A3
S11302302D393F07F1F62C960FB6F894DEBF0FBEAA
S1130240CDBFDF91CF910895EDE9F1E090E047E66D
S1130250923030F09230B9F49F5F31969230D0F7FB
S11302608402212D11242595259587FD2395322F70
S1130270330F330F320F330F831B8083822F94305D
S113028059F70C94EB006402212D11242595259532
S113029067FD2395322F330F330F320F330F631B58
S11302A06083622FECCF1E9A8FB9779BFECF929A10
S11302B083B183B985E08A95F1F7000092981E987E
S11302C085E08A95F1F700008FB10895CF9360918E
S11302D03E0170E0E0913D01F0910001A82FB0E0F3
S11302E030E020E0C0E0AD01022E02C055954795F4
S11302F00A94E2F7942F9370AB01022E02C0559535
S113030047950A94E2F7437055274230510551F15D
S11303104330510589F14130510549F1913051F093
S1130320923061F4F13041F4EF5FE43039F4CF5F9F
S1130330E0E004C0F13081F0E0E0F0E02E5F3F4FF8
S11303402430310581F6F0930001E0933D01809360
S11303503E018C2FCF910895EF5FE43079F7C150BF
S1130360E0E0ECCF992331F39330E1F2E7CF93301F
S113037009F39923B9F2E2CF9230E1F2913091F28C
S1130380DDCF8230910581F164F40097E9F00197A3
S1130390A1F46230710509F45CC0672B09F45EC0F6
S11303A0089583309105C9F1049739F480910101CE
S11303B091E0892780930101089582E090E0909371
S11303C0060180930501089562307105C1F1613021
S11303D0710531F787B7816087BF82E090E0909321
S11303E0060180930501089520914701222329F3F2
S11303F020910201265FFA012083209103012183C9
S113040020910401228327B72B7F27BF1092470135
S113041090930601809305010895809147018823F4
S113042061F287B78B7F87BF109247011092480112
S113043082E090E09093060180930501089587B7C8
S11304408E7F87BF81E090E0909306018093050141
S113045008951092060110920501089582E090E03B
S113046090930601809305010E949C0583E191E02D
S11304700E941C0681E0809348010895FC0181815B
S1130480680F618382816C3318F08F5F82831182DD
S1130490883108F0128208951F920F920FB60F92BE
S11304A011248F939F93809102018F5F80930201A7
S11304B0809102018C3338F0809103018F5F809327
S11304C0030110920201809103018C3338F0809172
S11304D004018F5F80930401109203018091040151
S11304E0883110F0109204018091020180FD10C047
S11304F08BE080939F019091040180913C019817B7
S113050081F09F918F910F900FBE0F901F901895BF
S11305108AE080939F019091040180913C0198139B
S1130520F0CF9091030180913B019813EACF909111
S1130530020180913A019813E4CF87B7846087BFA2
S113054081E080934701DDCF1F920F920FB60F9287
S113055011248F939F9385B391E0892785BB9F9145
S11305608F910F900FBE0F901F9018951F920F92AE
S11305700FB60F9211248F939F9384B195B19695E2
S113058087959695879596958795845283BD369AD7
S11305909F918F910F900FBE0F901F90189594E12B
S11305A0899F802D11242091860030918700082E88
S11305B0000C990B280F391F2D3F3340D8F420919C
S11305C0860030918700280F391F2431310558F0F7
S11305D02091860030918700820F931F90938700AB
S11305E080938600089584E190E09093870080933F
S11305F0860008958CEF93E09093870080938600A3
S113060008950E949C0542E069ED71E080E90E9432
S1130610B6098FE39FE10197F1F700C000006091F4
S1130620D9017091DA017627672776277695679541
S11306307695679590E080E00E94680B20E030E0BA
S113064040E05DE30E94CE0B0E94390B9B01709346
S113065074016093730140910101411115C0772722
S1130660CB01880F991F880F991F880F991F860F38
S1130670971F65E070E00E94C70A9B01205E3F4F10
S113068030937401209373014AE062EA71E0C90176
S11306900E946A0C82EA91E00E941C0680E9809321
S11306A07400089561110EC029E0829FC0011124D5
S11306B065E070E00E94C70A605E7F4F709374012A
S11306C060937301089581309105D9F158F1823016
S11306D0910519F0039701F1089580918600909196
S11306E0870024E1629F602D1124062E000C770BF5
S11306F0860F971F8D3F9340A0F5809186009091BF
S11307008700860F971F449798F584E190E09093B3
S113071087008093860008950E949C058DE191E0F6
S11307200C941C06F9018181680F618382816C330A
S113073018F08F5F82831182883178F0F901128278
S11307400895FA018181680F618382816C3318F006
S11307508F5F82831182883108F40895FA0112822E
S113076008958CEF93E0909387008093860008951A
S11307708091860090918700680F791F709387009D
S113078060938600089582E70E94D0090E949C0528
S11307908EE291E00C941C061F920F920FB60F92FA
S11307A011240BB60F922F933F934F935F936F9344
S11307B07F938F939F93AF93BF93EF93FF93CF93C5
S11307C0DF93CDB7DEB76097DEBFCDBF8CB1BE017E
S11307D06F5F7F4F90E00E94630C0E949C05CE01E6
S11307E001960E941C0660960FB6F894DEBF0FBEF9
S11307F0CDBFDF91CF91FF91EF91BF91AF919F91C9
S11308008F917F916F915F914F913F912F910F90B5
S11308100BBE0F900FBE0F901F90189591E08111A1
S113082001C090E09FB9779BFECF6FB9779BFECF55
S11308308091620088608093620080916200877F6B
S113084080936200089520914901820F911DFC015B
S1130850808191E09FB9779BFECF8FB9779BFECFC4
S11308608091620088608093620080916200877F3B
S113087080936200809149018F5F809349018031A8
S1130880D9F0803209F0089585ED8A95F1F70000DA
S11308901FB8779BFECF80E88FB9779BFECF8091FE
S11308A0620088608093620080916200877F8093F9
S11308B06200109249010895F5EDFA95F1F70000F0
S11308C01FB8779BFECF80EC8FB9779BFECF8091CA
S11308D0620088608093620080916200877F8093C9
S11308E0620080914901CDCF660F660F660F605C90
S11308F01FB8779BFECF6FB9779BFECF2091620024
S113090028602093620020916200277F2093620078
S113091025ED2A95F1F70000FC019C01285F3F4F6B
S113092091E081919FB9779BFECF8FB9779BFECFE2
S11309308091620088608093620080916200877F6A
S11309408093620085ED8A95F1F70000E217F307C2
S113095041F708958D5F8295880F880F807C6058D9
S1130960680F1FB8779BFECF6FB9779BFECF80913E
S1130970620088608093620080916200877F809328
S113098062000895811113C081E08FB9779BFECF77
S113099080E38FB9779BFECF80916200886080935B
S11309A0620080916200877F80936200089584369C
S11309B0C0F48A3070F59DEC899F912D1124969591
S11309C096959695292F220F220F920F990F891B26
S11309D0805D91E09FB9779BFECF8FB9779BFECF67
S11309E0DBCF99E2899F912D112492959F70905DA0
S11309F021E02FB9779BFECF9FB9779BFECF9091D3
S1130A00620098609093620090916200977F909347
S1130A10620099E2899F912D112492959F70382F3D
S1130A2024E6929F301911242DEC329F912D11242C
S1130A30969596959695905D21E02FB9779BFECF7C
S1130A409FB9779BFECF909162009860909362006B
S1130A5090916200977F90936200ADCF87FF19C099
S1130A6091E09FB9779BFECF9DE29FB9779BFECF24
S1130A709091620098609093620090916200977FD9
S1130A809093620095ED9A95F1F7000081950C948E
S1130A90C2040C94C2041FB8779BFECF8EE08FB9BA
S1130AA0779BFECF80916200886080936200809182
S1130AB06200877F8093620008951FB8779BFECF02
S1130AC08CE08FB9779BFECF809162008860809321
S1130AD0620080916200877F8093620008951FB84E
S1130AE0779BFECF8EE18FB9779BFECF809162001A
S1130AF088608093620080916200877F80936200A7
S1130B0008951FB8779BFECF88E18FB9779BFECFFE
S1130B108091620088608093620080916200877F88
S1130B20809362000895E2E6F0E08081886080832B
S1130B308081877F808308951FB8779BFECF81E0F3
S1130B408FB9779BFECF80916200886080936200AA
S1130B5080916200877F809362008FE19CE101971E
S1130B60F1F700C0000008951FB8779BFECF82E024
S1130B708FB9779BFECF809162008860809362007A
S1130B8080916200877F809362008FE697E10197EE
S1130B90F1F700C0000008951FB8779BFECF80ECEA
S1130BA08FB9779BFECF809162008860809362004A
S1130BB080916200877F8093620008951FB8779BBD
S1130BC0FECF80E88FB9779BFECF8091620088606A
S1130BD08093620080916200877F80936200089511
S1130BE090E131E020E23FB9779BFECF2FB9779BAC
S1130BF0FECF8091620088608093620080916200E1
S1130C00877F8093620085ED8A95F1F7000091500B
S1130C1051F7089591E09FB9779BFECF8FB9779BE9
S1130C20FECF8091620088608093620080916200B0
S1130C30877F809362000895FC0160E050E040E00B
S1130C4071E04E0F5F1FDA018C917FB9779BFECF65
S1130C508FB9779BFECF9091620098609093620069
S1130C6090916200977F90936200B5EDBA95F1F789
S1130C7000006F5F462F50E0DF010D900020E9F780
S1130C809D012E1B3F0B2250310924173507C8F64E
S1130C9008958FEF99EF0197F1F700C0000088E005
S1130CA0809361001FB8779BFECF80E38FB9779B59
S1130CB0FECF809162008860809362008091620020
S1130CC0877F809362008FE59DE60197F1F700C06E
S1130CD000001FB8779BFECF80E38FB9779BFECFD0
S1130CE08091620088608093620080916200877FB7
S1130CF0809362008FE59DE60197F1F700C0000044
S1130D001FB8779BFECF80E38FB9779BFECF80918E
S1130D10620088608093620080916200877F809384
S1130D2062008FE59DE60197F1F700C000001FB84F
S1130D30779BFECF88E38FB9779BFECF80916200CB
S1130D4088608093620080916200877F8093620054
S1130D508FE19EE40197F1F700C000001FB8779B74
S1130D60FECF88E08FB9779BFECF809162008860C8
S1130D708093620080916200877F809362008FE19C
S1130D809EE40197F1F700C000001FB8779BFECFE7
S1130D9081E08FB9779BFECF809162008860809359
S1130DA0620080916200877F809362008FE19EE4FD
S1130DB00197F1F700C000001FB8779BFECF86E0D3
S1130DC08FB9779BFECF8091620088608093620028
S1130DD080916200877F809362008FE19EE4019797
S1130DE0F1F700C000001FB8779BFECF8CE08FB9ED
S1130DF0779BFECF8091620088608093620080912F
S1130E006200877F809362008FE19EE40197F1F78F
S1130E1000C0000008956F927F928F929F92AF92CC
S1130E20BF92CF92DF92EF92FF920F931F93CF93D3
S1130E30DF93CDB7DEB769970FB6F894DEBF0FBE68
S1130E40CDBFF42E122F002359F04B015C018824EE
S1130E50B7FC83949924AA24BB24082D97FDAFC022
S1130E6011117DC09E012F5F3F4F69012AE030E0E0
S1130E7040E050E00E94DB0AF62F2A8B3B8B4C8B20
S1130E805D8B6E8B7F8B888F998F6A897B898C8928
S1130E909D89E1E0E10FD601A10FB11DF05DFC9346
S1130EA01E2F611571058105910501F7FF20E1F001
S1130EB020E3E11001C020E2EF15B0F44E2F50E022
S1130EC0D601A40FB51F82E090E08C0F9D1F480F40
S1130ED0591F8FEF8F0D8E1B840F952F911D2D930E
S1130EE0A817B907E1F7EF2D002331F0D601AE0FB3
S1130EF0B11D8DE28C93EF5FE150F0E03196EC0D83
S1130F00FD1D91E082919FB9779BFECF8FB9779BAE
S1130F10FECF8091620088608093620080916200BD
S1130F20877F80936200A5EDAA95F1F70000CE16A5
S1130F30DF0641F769960FB6F894DEBF0FBECDBF4A
S1130F40DF91CF911F910F91FF90EF90DF90CF90A1
S1130F50BF90AF909F908F907F906F900895DE0127
S1130F6011966D014D015D01BFEFAB1ABB0A6624FA
S1130F706A94610E6A0C7B2C711C04C095012F5F6E
S1130F803F4F59012AE030E040E050E00E94DB0A84
S1130F90E62F2A8B3B8B4C8B5D8B6A897B898C89F2
S1130FA09D89E05DD401EC934501A614B70431F7A3
S1130FB0F601E10FF11D2EE220831F5F57CF9095BC
S1130FC08095709561957F4F8F4F9F4F49CF5F926A
S1130FD06F927F928F929F92AF92BF92CF92DF9245
S1130FE0EF92FF920F931F93CF93DF93CDB7DEB7AA
S1130FF061970FB6F894DEBF0FBECDBF3C01562EED
S1131000142F022F9C0197FF04C022273327281B8B
S1131010390B111128C0AE014F5F5F4F7A0101C037
S11310201A2F6AE070E0C9010E94C70A462F242FD4
S1131030372FA1E0A10FF701E10FF11D805D80833F
S11310402115310569F7011137C077FC8EC0552091
S113105041F08A2F90E0252D30E040E2A51508F4F8
S113106079C0EA2F38C0CE0101967C015C016C0185
S11310709FEFC91AD90A88248A94810E8C0C9D2C5E
S1131080911C04C0A6014F5F5F4F6A016AE070E0E3
S1131090C9010E94C70A462F242F372F805DF5010E
S11310A0808356018C149D0469F7F701E10FF11D4B
S11310B08EE280831F5FB5CF072D001F0027001F1E
S11310C051103DC0002369F2E1E0EA0FAE0DBF2DDF
S11310D0B11D8DE28C93E150F0E03196EE0DFF1DD1
S11310E091E082919FB9779BFECF8FB9779BFECF1A
S11310F08091620088608093620080916200877FA3
S11311008093620045ED4A95F1F70000EE16FF0664
S113111041F761960FB6F894DEBF0FBECDBFDF91E5
S1131120CF911F910F91FF90EF90DF90CF90BF90E0
S1131130AF909F908F907F906F905F9008958A2FCB
S113114090E0E52DE01BFF0B9F0140E38E179F0706
S11311500CF0B8CFAF5F8E0D9F1DFC0140838A2F2A
S113116090E082179307B4F3ADCFE2E0E10FAE0D48
S1131170BF2DB11D8DE28C93552009F4ACCF8E2F79
S113118090E0252D30E0AE2F40E28217930714F350
S1131190A2CF1F920F920FB60F9211240BB60F928B
S11311A02F938F939F93EF93FF93E0917100E850F7
S11311B0E13598F0809171008093D20184E08093AE
S11311C07400FF91EF919F918F912F910F900BBE1F
S11311D00F900FBE0F901F901895F0E0EE50F74F50
S11311E00C94FA0A5309DA08DA08DA08DA08DA0891
S11311F0DA08DA085309DA08DA08DA08DA08DA0861
S1131200DA08DA085D09DA08DA08DA08DA08DA0846
S1131210DA08DA08DA08DA08DA08DA08DA08DA08BA
S1131220DA08DA085D09DA08DA08DA08DA08DA0826
S1131230DA08DA08DA08DA08DA08DA08DA08DA089A
S1131240DA08DA087509DA08DA08DA08DA08DA08EE
S1131250DA08DA087909DA08DA08DA08DA08DA08DA
S1131260DA08DA08DA08DA08DA08DA08DA08DA086A
S1131270DA08DA088609DA08DA08DA08DA08DA08AD
S1131280DA08DA084309E0914A018091D301909188
S1131290D401E80FF92FF11D80917300808384E954
S11312A0809374008ECF8091D50180937300109247
S11312B04A0185E88093740084CFE0914A018091CB
S11312C0D601E81760F78091D3019091D40121E011
S11312D02E0F20934A01E80FF92FF11D808180938E
S11312E0730085E8809374006CCF85EA8093740062
S11312F068CF20914A018091D6018150990B28171B
S11313001906DCF485EC809374005BCF8091D301E3
S11313109091D401E0914A0121E02E0F20934A01DB
S1131320E80FF92FF11D8091730080838091D6011D
S11313308150990B281719062CF385E880937400C3
S113134040CF80917400817008959091740090FD55
S1131350FCCF8E7F8093D5017093D4016093D30129
S11313604093D60185EA80937400089590917400A7
S113137090FDFCCF81608093D5017093D40160937C
S1131380D3014093D60185EA8093740008958FEFCA
S113139080937300109271008CE080937000089524
S11313A05D9BFECF8CB95D9BFECF0895FC019081BF
S11313B0992349F031965D9BFECF9CB95D9BFECF8E
S11313C091919111F8CF08959C01FC01449144231B
S11313D069F00196F90124915D9BFECF2CB95D9BC8
S11313E0FECF9C01FC0144914111F3CF08958AB1D1
S11313F088618AB9E5E9F0E0808186608083109293
S1131400900080E189B9089580E89EE302C00197C5
S113141021F05F9BFCCF8CB1089580E0089587EFA5
S113142087BB81E084BB88E082B983B9169A8A9A23
S11314308DB180658DB9709A87B7816087BF83B796
S1131440856083BF80B7886080BF8FB583608FBDA0
S11314508EB58B608EBD10927A0085B5896785BD87
S113146080918B00836C80938B0080918A008960CB
S113147080938A0010928C0087B1806C87B986B102
S11314808D6C86B90E9449060E94C7090E94F7091B
S113149078941092D70141E067ED71E080E00E94FA
S11314A0B6098FE39FE10197F1F700C000004CEF0C
S11314B0F42E1FEFFABA1BBB08B388B3806788BB4E
S11314C0D0E0C0E0FE01EE0FFF1FE15CFE4F808123
S11314D0918129B3880F991F906E30E00C2E02C0C1
S11314E0359527950A94E2F721703327822B932BA5
S11314F091838083808191818115904F91F1219610
S1131500C530D105F9F608BB1ABB80914801882380
S113151091F18091020180680E9453010E9466014A
S11315202AE331E042E051E0682F80910501909177
S113153006010E9463030E94C303809105019091F8
S1131540060181309105E1F082309105C9F0892BC3
S113155009F0B0CF60913C0180913B010E942401CD
S1131560A9CF60910501709106014AE351E0CE01D3
S11315700E94C101C4CF809102010E945301CECFC9
S113158060910401809103010E94240193CF97FB91
S1131590072E16F4009407D077FD09D00E94030BA0
S11315A007FC05D03EF4909581959F4F0895709562
S11315B061957F4F0895052E97FB1EF400940E94B9
S11315C0F20A57FD07D00E94170B07FC03D04EF414
S11315D00C94F20A50954095309521953F4F4F4F0A
S11315E05F4F089590958095709561957F4F8F4FCB
S11315F09F4F0895EE0FFF1F0024001C0BBE0790A1
S1131600F691E02D0994AA1BBB1B51E107C0AA1F48
S1131610BB1FA617B70710F0A61BB70B881F991F8F
S11316205A95A9F780959095BC01CD010895A1E242
S11316301A2EAA1BBB1BFD010DC0AA1FBB1FEE1F48
S1131640FF1FA217B307E407F50720F0A21BB30B93
S1131650E40BF50B661F771F881F991F1A9469F70F
S113166060957095809590959B01AC01BD01CF016B
S113167008950E94AD0B88F09F5798F0B92F9927D1
S1131680B751B0F0E1F0660F771F881F991F1AF069
S1131690BA95C9F714C0B13091F00E94C70BB1E0FC
S11316A008950C94C70B672F782F8827B85F39F0FB
S11316B0B93FCCF3869577956795B395D9F73EF402
S11316C090958095709561957F4F8F4F9F4F0895AA
S11316D0E89409C097FB3EF49095809570956195C8
S11316E07F4F8F4F9F4F9923A9F0F92F96E9BB277E
S11316F09395F695879577956795B795F111F8CFFA
S1131700FAF4BB0F11F460FF1BC06F5F7F4F8F4F64
S11317109F4F16C0882311F096E911C0772321F05A
S11317209EE8872F762F05C0662371F096E8862FF2
S113173070E060E02AF09A95660F771F881FDAF749
S1131740880F9695879597F9089557FD9058440FFB
S1131750551F59F05F3F71F04795880F97FB991F0C
S113176061F09F3F79F087950895121613061406C9
S1131770551FF2CF4695F1DF08C016161706180656
S1131780991FF1CF86957105610508940895E89431
S1131790BB2766277727CB0197F908950E94E10BB1
S11317A00C94520C0E94440C38F00E944B0C20F014
S11317B0952311F00C943B0C0C94410C11240C94C3
S11317C0C80B0E94A50B70F3959FC1F3950F50E0D1
S11317D0551F629FF001729FBB27F00DB11D639FDF
S11317E0AA27F00DB11DAA1F649F6627B00DA11D85
S11317F0661F829F2227B00DA11D621F739FB00D2B
S1131800A11D621F839FA00D611D221F749F33279A
S1131810A00D611D231F849F600D211D822F762F33
S11318206A2F11249F5750409AF0F1F088234AF010
S1131830EE0FFF1FBB1F661F771F881F915050407C
S1131840A9F79E3F510580F00C943B0C0C94C80BF7
S11318505F3FE4F3983ED4F3869577956795B79503
S1131860F795E7959F5FC1F7FE2B880F911D96951D
S1131870879597F9089597F99F6780E870E060E08D
S113188008959FEF80EC089500240A941616170615
S113189018060906089500240A941216130614065D
S11318A005060895092E0394000C11F4882352F0C0
S11318B0BB0F40F4BF2B11F460FF04C06F5F7F4F78
S11318C08F4F9F4F0895FB01DC0101900D92002082
S11318D0E1F70895BB274A3031F4992322F4BDE29D
S11318E0909581959F4F0C94760CBB27FB0155274F
S11318F0AA27880F991FAA1FA41710F0A41B839569
S11319005051B9F7A05DAA3308F0A95DA1930097DF
S113191079F7B111B1931192CB010C948F0CDC01C6
S1131920FC01672F71917723E1F7329704C07C9112
S11319306D9370836291AE17BF07C8F30895F8944E
S1051940FFCFD3
S1131942010100000C0200C0F9A4B0999282F8804F
S113195298FFFC414C41524D2053455400414C41A7
S1131962524D45442044495341424C454400736519
S10D19726E7420737475666600003D
S9030000FC
