:100000000C9446000C9465000C9465000C946500FB
:100010000C9465000C9465000C9465000C946500CC
:100020000C9465000C9465000C9465000C946500BC
:100030000C9465000C9465000C9465000C946500AC
:100040000C9465000C9465000C9465000C9465009C
:100050000C9465000C9465000C9465000C9465008C
:100060000C9465000C9465000C9465000C9465007C
:100070000C9465000C9465000C9465000C9465006C
:100080000C9465000C9465000C94650011241FBE4F
:10009000CFEFD0E1DEBFCDBF11E0A0E0B1E0E6E6FA
:1000A000F4E000E00BBF02C007900D92AA30B10748
:1000B000D9F721E0AAE0B1E001C01D92AA32B2074F
:1000C000E1F70E94D7010C9431020C940000482FF4
:1000D000E82FF0E099B3EE0FFF1FE65FFE4F20819F
:1000E0003181220F331F306E892F90E002C0959529
:1000F00087954A95E2F781709927282B392B318310
:10010000208381E02115304F09F080E00895CF93DE
:10011000DF93CDB7DEB72A970FB6F894DEBF0FBED8
:10012000CDBF2AE0E0E0F1E0DE01119601900D92F2
:100130002A95E1F721E030E02C0F3D1F820F931F3D
:10014000FC0180812A960FB6F894DEBF0FBECDBFAA
:10015000DF91CF910895FF920F931F93CF93DF9379
:10016000CDB7DEB72A970FB6F894DEBF0FBECDBF6E
:10017000AC01A4E0FA2E483E83E0580730F4F3E0E7
:10018000FF2E4436510508F45BC0109226011092F0
:1001900027011092280110922901E6E2F1E00FEF09
:1001A0000F0D10E0095D1E4F9A01ADECBCEC0E94F2
:1001B00022029695879596958795969587959C01A9
:1001C000220F331F220F331F280F391F220F331F17
:1001D000421B530B4193AC01E017F10729F793E061
:1001E000F91609F455C084E0F81609F48BC092E0C2
:1001F000F91679F118BA809126019AE0E0E0F1E071
:10020000DE01119601900D929A95E1F7E1E0F0E0A0
:10021000EC0FFD1FE80FF11D80818BBB8FE39FE189
:100220000197F1F700C000002A960FB6F894DEBFE0
:100230000FBECDBFDF91CF911F910F91FF90089519
:10024000FF24F3944A30510508F49FCFE2E0FE2EDC
:100250009CCF18BA809126019AE0E0E0F1E0DE013F
:10026000119601900D929A95E1F7E1E0F0E0EC0F24
:10027000FD1FE80FF11D80818BBB8FE39FE101978C
:10028000F1F700C0000080E188BB80912701B5CF65
:1002900018BA809126019AE0E0E0F1E0DE011196C3
:1002A00001900D929A95E1F7E1E0F0E0EC0FFD1F6F
:1002B000E80FF11D80818BBB8FE39FE10197F1F780
:1002C00000C0000080E188BB809127019AE0E0E057
:1002D000F1E0DE01119601900D929A95E1F7E1E0CF
:1002E000F0E0EC0FFD1FE80FF11D80818BBB8FE369
:1002F0009FE10197F1F700C0000080E388BB809187
:1003000028017BCF18BA809126019AE0E0E0F1E065
:10031000DE01119601900D929A95E1F7E1E0F0E08F
:10032000EC0FFD1FE80FF11D80818BBB8FE39FE178
:100330000197F1F700C0000080E188BB80912701A0
:100340009AE0E0E0F1E0DE01119601900D929A95BD
:10035000E1F7E1E0F0E0EC0FFD1FE80FF11D808117
:100360008BBB8FE39FE10197F1F700C0000080E3B2
:1003700088BB809128019AE0E0E0F1E0DE0111966F
:1003800001900D929A95E1F7E1E0F0E0EC0FFD1F8E
:10039000E80FF11D80818BBB8FE39FE10197F1F79F
:1003A00000C0000080E488BB8091290126CF8FEF38
:1003B00087BBD0E0C0E0FF24FA9401E010E08FE3B7
:1003C0009FE10197F1F700C000001ABAFBBA68B3C9
:1003D00088B3806788BBEAE0F1E030E020E041913B
:1003E000519199B3892F90E0022E02C0959587957F
:1003F0000A94E2F781709927440F551F842B952B9F
:10040000906EDF0112978D939C938115904F49F464
:10041000C801022E02C0880F991F0A94E2F7C80F84
:10042000D91F2F5F3F4F28303105C9F668BBC11572
:1004300084E0D80710F0C1E0D0E0FABACE010E9403
:10044000AB00BDCFA29FB001B39FC001A39F700DB1
:10045000811D1124911DB29F700D811D1124911DCC
:060460000895F894FFCF9F
:0A046600C0F9A4B0999282F88098C2
:00000001FF
