:100000000C9446000C9450000C9450000C9450003A
:100010000C9450000C9450000C9450000C94500020
:100020000C9450000C9450000C9450000C94500010
:100030000C9450000C9450000C9450000C94500000
:100040000C9450000C9450000C9450000C945000F0
:100050000C9450000C9450000C9450000C945000E0
:100060000C9450000C9450000C9450000C945000D0
:100070000C9450000C9450000C9450000C945000C0
:100080000C9450000C9450000C94500011241FBE8E
:10009000CFEFD0E1DEBFCDBF0E9452000C948400B0
:1000A0000C9400008FEF8ABB90EF97BB11BA82BB14
:1000B0008BBB90E080E060E350E440E230E107C0B9
:1000C0008130910591F438BB019620B32BBB00978A
:1000D000B9F718BA90E080E0F7CF8330910551F47A
:1000E00068BB80B38BBB84E090E082309105A9F7B8
:1000F00048BBEACF8430910539F758BB80B38BBB3E
:0C01000018BA90E080E0E0CFF894FFCF48
:00000001FF
