:1000000019C028C027C026C025C024C023C022C0D4
:1000100021C020C01FC01EC01DC01CC01BC01AC0F4
:1000200019C018C05CC016C015C014C013C012C0DF
:10003000E1C010C011241FBECFEFD2E0DEBFCDBFA4
:1000400021E0A0E0B1E001C01D92AE35B207E1F7BA
:10005000D3D1E5C1D5CF42E06CE571E080E9B2D102
:100060008FE99FE00197F1F700C00000ECE5F1E0B7
:10007000808190E0909301018093000180910001C4
:1000800090910101982F882790930101809300019E
:1000900080910001909101012181822B90930101B7
:1000A00080930001809100019091010196958795C0
:1000B00096958795909301018093000180910001AE
:1000C0009091010196958795929582958F708927D9
:1000D0009F708927909301018093000108951F92DA
:1000E0000F920FB60F9211242F933F934F935F936C
:1000F0006F937F938F939F93AF93BF93EF93FF93F0
:100100008091C60090E090932C0180932B01A3DF97
:100110008091000190910101892F16D080910001FA
:100120009091010111D0FF91EF91BF91AF919F91FB
:100130008F917F916F915F914F913F912F910F9090
:100140000FBE0F901F9018959091C00095FFFCCFA7
:100150008093C6008091C00085FFFCCF0895FC010C
:100160002081222371F031969091C00095FFFCCF41
:100170002093C6009091C00095FFFCCF21912111E2
:10018000F3CF08959C01C901F9014491442399F0EA
:100190002F5F3F4FFC0184919091C00095FFFCCFF1
:1001A0008093C6009091C00095FFFCCFC901F90172
:1001B00044914111EDCF0895E1ECF0E08081886930
:1001C0008083E2ECF0E08081866080831092C5003D
:1001D00083E38093C400089580E89EE302C0019702
:1001E00039F02091C00027FFFACF8091C600089512
:1001F00080E008951F920F920FB60F9211242F9353
:100200008F939F93EF93FF93E091B900E850E1350E
:1002100088F08091B9008093550184E08093BC0000
:10022000FF91EF919F918F912F910F900FBE0F90A3
:100230001F901895F0E0E25EFE4F099460C0E9CF90
:10024000E8CFE7CFE6CFE5CFE4CFE3CF58C0E1CFAB
:10025000E0CFDFCFDECFDDCFDCCFDBCF5AC0D9CFD1
:10026000D8CFD7CFD6CFD5CFD4CFD3CFD2CFD1CF72
:10027000D0CFCFCFCECFCDCFCCCFCBCF4AC0C9CF31
:10028000C8CFC7CFC6CFC5CFC4CFC3CFC2CFC1CFD2
:10029000C0CFBFCFBECFBDCFBCCFBBCF52C0B9CF79
:1002A000B8CFB7CFB6CFB5CFB4CFB3CF4EC0B1CFA5
:1002B000B0CFAFCFAECFADCFACCFABCFAACFA9CF62
:1002C000A8CFA7CFA6CFA5CFA4CFA3CF4BC0A1CFF8
:1002D000A0CF9FCF9ECF9DCF9CCF9BCF00C0E09162
:1002E00002018091560190915701E80FF92FF11DFD
:1002F0008091BB00808384E98093BC0091CF809182
:1003000058018093BB001092020185E88093BC00E5
:1003100087CFE091020180915901E81760F7809141
:1003200056019091570121E02E0F20930201E80F12
:10033000F92FF11D80818093BB0085E88093BC007C
:100340006FCF85EA8093BC006BCF20910201809132
:1003500059018150990B28171906DCF485EC80931C
:10036000BC005ECF8091560190915701E09102014F
:1003700021E02E0F20930201E80FF92FF11D80914B
:10038000BB008083809159018150990B2817190671
:100390002CF385E88093BC0043CF8091BC00817032
:1003A00008959091BC0090FDFCCF8E7F8093580102
:1003B00070935701609356014093590185EA8093E9
:1003C000BC0008959091BC0090FDFCCF81608093AB
:1003D000580170935701609356014093590185EA83
:1003E0008093BC0008958FEF8093BB001092B900FA
:1003F00082E08093B800089588E08AB9DDDEF3DFFB
:10040000789410925A0141E06AE571E080E0DADF09
:100410008FE99FE00197F1F700C00000FFCFF8944B
:02042000FFCF0C
:00000001FF
