S00F00006C6162355F34382E73726563E6
S113000019C033C032C031C030C02FC02EC02DC083
S11300102CC02BC02AC029C028C027C026C025C098
S113002024C023C047C021C020C01FC01EC01DC0A3
S1130030BDC01BC011241FBECFEFD2E0DEBFCDBFB9
S113004011E0A0E0B1E0E4EFF5E002C005900D920C
S1130050AA30B107D9F721E0AAE0B1E001C01D92AE
S1130060A636B207E1F7A4D1C3C2CACF42E064E620
S113007071E080E983D18FE99FE00197F1F700C037
S113008000006091640170916501762767277627E7
S1130090769567957695679590E080E0B8D120E0F5
S11300A030E040E05DE319D286D17093340160936F
S11300B0330108951F920F920FB60F9211242F93BC
S11300C03F934F935F936F937F938F939F93AF93DC
S11300D0BF93EF93FF93CADF80E091E01CD0FF91C0
S11300E0EF91BF91AF919F918F917F916F915F91AC
S11300F04F913F912F910F900FBE0F901F90189525
S11301009091C00095FFFCCF8093C6008091C00001
S113011085FFFCCF0895FC012081222371F03196E4
S11301209091C00095FFFCCF2093C6009091C00031
S113013095FFFCCF21912111F3CF08959C01C901B2
S1130140F9014491442399F02F5F3F4FFC018491BE
S11301509091C00095FFFCCF8093C6009091C000A1
S113016095FFFCCFC901F90144914111EDCF0895E8
S1130170E1ECF0E0808188618083E2ECF0E0808152
S1130180866080831092C50083E38093C400089541
S113019080E89EE302C0019739F02091C00027FF58
S11301A0FACF8091C600089580E008951F920F92BF
S11301B00FB60F9211242F938F939F93EF93FF9376
S11301C0E091B900E850E13588F08091B90080935E
S11301D05D0184E08093BC00FF91EF919F918F912A
S11301E02F910F900FBE0F901F901895F0E0E650DE
S11301F0FF4F099460C0E9CFE8CFE7CFE6CFE5CF62
S1130200E4CFE3CF58C0E1CFE0CFDFCFDECFDDCF07
S1130210DCCFDBCF5AC0D9CFD8CFD7CFD6CFD5CF2D
S1130220D4CFD3CFD2CFD1CFD0CFCFCFCECFCDCFCE
S1130230CCCFCBCF4AC0C9CFC8CFC7CFC6CFC5CF8D
S1130240C4CFC3CFC2CFC1CFC0CFBFCFBECFBDCF2E
S1130250BCCFBBCF52C0B9CFB8CFB7CFB6CFB5CFD5
S1130260B4CFB3CF4EC0B1CFB0CFAFCFAECFADCF01
S1130270ACCFABCFAACFA9CFA8CFA7CFA6CFA5CFBE
S1130280A4CFA3CF4BC0A1CFA0CF9FCF9ECF9DCF54
S11302909CCF9BCF00C0E0910A0180915E019091B8
S11302A05F01E80FF92FF11D8091BB00808384E981
S11302B08093BC0091CF809160018093BB00109229
S11302C00A0185E88093BC0087CFE0910A01809100
S11302D06101E81760F780915E0190915F0121E070
S11302E02E0F20930A01E80FF92FF11D80818093CE
S11302F0BB0085E88093BC006FCF85EA8093BC0087
S11303006BCF20910A01809161018150990B2817CC
S11303101906DCF485EC8093BC005ECF80915E010D
S113032090915F01E0910A0121E02E0F20930A01D0
S1130330E80FF92FF11D8091BB008083809161014A
S11303408150990B281719062CF385E88093BC007B
S113035043CF8091BC00817008959091BC0090FDC2
S1130360FCCF8E7F8093600170935F0160935E0188
S11303704093610185EA8093BC0008959091BC008C
S113038090FDFCCF81608093600170935F01609366
S11303905E014093610185EA8093BC0008958FEF6C
S11303A08093BB001092B90082E08093B800089556
S11303B0DFDEF5DFFFCF70D088F09F5790F0B92FC4
S11303C09927B751A0F0D1F0660F771F881F991FA6
S11303D01AF0BA95C9F712C0B13081F077D0B1E004
S11303E0089574C0672F782F8827B85F39F0B93F14
S11303F0CCF3869577956795B395D9F73EF49095A8
S11304008095709561957F4F8F4F9F4F0895E89425
S113041009C097FB3EF490958095709561957F4F48
S11304208F4F9F4F9923A9F0F92F96E9BB279395F6
S1130430F695879577956795B795F111F8CFFAF406
S1130440BB0F11F460FF1BC06F5F7F4F8F4F9F4F37
S113045016C0882311F096E911C0772321F09EE895
S1130460872F762F05C0662371F096E8862F70E0FB
S113047060E02AF09A95660F771F881FDAF7880FD5
S11304809695879597F9089557FD9058440F551FF1
S113049059F05F3F71F04795880F97FB991F61F002
S11304A09F3F79F087950895121613061406551F79
S11304B0F2CF4695F1DF08C0161617061806991FE5
S11304C0F1CF86957105610508940895E894BB27DA
S11304D066277727CB0197F908950BD078C069D0A8
S11304E028F06ED018F0952309F05AC05FC011248B
S11304F0EECFCADFA0F3959FD1F3950F50E0551FBF
S1130500629FF001729FBB27F00DB11D639FAA2764
S1130510F00DB11DAA1F649F6627B00DA11D661FB3
S1130520829F2227B00DA11D621F739FB00DA11DD4
S1130530621F839FA00D611D221F749F3327A00D8E
S1130540611D231F849F600D211D822F762F6A2F2A
S113055011249F5750408AF0E1F088234AF0EE0FAF
S1130560FF1FBB1F661F771F881F91505040A9F7BC
S11305709E3F510570F014C0AACF5F3FECF3983E44
S1130580DCF3869577956795B795F795E7959F5F23
S1130590C1F7FE2B880F911D9695879597F90895BD
S11305A097F99F6780E870E060E008959FEF80EC22
S11305B0089500240A9416161706180609060895C5
S11305C000240A9412161306140605060895092E2B
S11305D00394000C11F4882352F0BB0F40F4BF2B9A
S11305E011F460FF04C06F5F7F4F8F4F9F4F0895DA
S10705F0F894FFCFA9
S10D05F462696720616E75730000F0
S9030000FC
